{
  "_format": "hh-sol-artifact-1",
  "contractName": "AscendaOracle",
  "sourceName": "contracts/AscendaOracle.sol",
  "abi": [
    {
      "inputs": [],
      "stateMutability": "nonpayable",
      "type": "constructor"
    },
    {
      "inputs": [
        {
          "internalType": "address",
          "name": "owner",
          "type": "address"
        }
      ],
      "name": "OwnableInvalidOwner",
      "type": "error"
    },
    {
      "inputs": [
        {
          "internalType": "address",
          "name": "account",
          "type": "address"
        }
      ],
      "name": "OwnableUnauthorizedAccount",
      "type": "error"
    },
    {
      "inputs": [],
      "name": "ReentrancyGuardReentrantCall",
      "type": "error"
    },
    {
      "anonymous": false,
      "inputs": [
        {
          "indexed": true,
          "internalType": "address",
          "name": "account",
          "type": "address"
        },
        {
          "indexed": false,
          "internalType": "bool",
          "name": "authorized",
          "type": "bool"
        }
      ],
      "name": "AuthorizedUpdated",
      "type": "event"
    },
    {
      "anonymous": false,
      "inputs": [
        {
          "indexed": true,
          "internalType": "string",
          "name": "symbol",
          "type": "string"
        },
        {
          "indexed": false,
          "internalType": "address",
          "name": "oracle",
          "type": "address"
        }
      ],
      "name": "OracleSet",
      "type": "event"
    },
    {
      "anonymous": false,
      "inputs": [
        {
          "indexed": true,
          "internalType": "address",
          "name": "previousOwner",
          "type": "address"
        },
        {
          "indexed": true,
          "internalType": "address",
          "name": "newOwner",
          "type": "address"
        }
      ],
      "name": "OwnershipTransferred",
      "type": "event"
    },
    {
      "anonymous": false,
      "inputs": [
        {
          "indexed": true,
          "internalType": "string",
          "name": "symbol",
          "type": "string"
        },
        {
          "indexed": false,
          "internalType": "uint256",
          "name": "price",
          "type": "uint256"
        },
        {
          "indexed": false,
          "internalType": "uint256",
          "name": "timestamp",
          "type": "uint256"
        }
      ],
      "name": "PriceUpdated",
      "type": "event"
    },
    {
      "inputs": [],
      "name": "PRICE_STALENESS_THRESHOLD",
      "outputs": [
        {
          "internalType": "uint256",
          "name": "",
          "type": "uint256"
        }
      ],
      "stateMutability": "view",
      "type": "function"
    },
    {
      "inputs": [
        {
          "internalType": "address",
          "name": "",
          "type": "address"
        }
      ],
      "name": "authorized",
      "outputs": [
        {
          "internalType": "bool",
          "name": "",
          "type": "bool"
        }
      ],
      "stateMutability": "view",
      "type": "function"
    },
    {
      "inputs": [
        {
          "internalType": "string[]",
          "name": "symbols",
          "type": "string[]"
        },
        {
          "internalType": "uint256[]",
          "name": "prices",
          "type": "uint256[]"
        }
      ],
      "name": "batchUpdatePrices",
      "outputs": [],
      "stateMutability": "nonpayable",
      "type": "function"
    },
    {
      "inputs": [
        {
          "internalType": "string",
          "name": "symbol",
          "type": "string"
        }
      ],
      "name": "getPrice",
      "outputs": [
        {
          "components": [
            {
              "internalType": "uint256",
              "name": "price",
              "type": "uint256"
            },
            {
              "internalType": "uint256",
              "name": "timestamp",
              "type": "uint256"
            },
            {
              "internalType": "uint256",
              "name": "decimals",
              "type": "uint256"
            },
            {
              "internalType": "bool",
              "name": "isValid",
              "type": "bool"
            }
          ],
          "internalType": "struct IAscendaOracle.PriceData",
          "name": "",
          "type": "tuple"
        }
      ],
      "stateMutability": "view",
      "type": "function"
    },
    {
      "inputs": [
        {
          "internalType": "string",
          "name": "symbol",
          "type": "string"
        }
      ],
      "name": "isSymbolSupported",
      "outputs": [
        {
          "internalType": "bool",
          "name": "",
          "type": "bool"
        }
      ],
      "stateMutability": "view",
      "type": "function"
    },
    {
      "inputs": [],
      "name": "owner",
      "outputs": [
        {
          "internalType": "address",
          "name": "",
          "type": "address"
        }
      ],
      "stateMutability": "view",
      "type": "function"
    },
    {
      "inputs": [
        {
          "internalType": "string",
          "name": "",
          "type": "string"
        }
      ],
      "name": "priceData",
      "outputs": [
        {
          "internalType": "uint256",
          "name": "price",
          "type": "uint256"
        },
        {
          "internalType": "uint256",
          "name": "timestamp",
          "type": "uint256"
        },
        {
          "internalType": "uint256",
          "name": "decimals",
          "type": "uint256"
        },
        {
          "internalType": "bool",
          "name": "isValid",
          "type": "bool"
        }
      ],
      "stateMutability": "view",
      "type": "function"
    },
    {
      "inputs": [],
      "name": "renounceOwnership",
      "outputs": [],
      "stateMutability": "nonpayable",
      "type": "function"
    },
    {
      "inputs": [
        {
          "internalType": "address",
          "name": "account",
          "type": "address"
        },
        {
          "internalType": "bool",
          "name": "_authorized",
          "type": "bool"
        }
      ],
      "name": "setAuthorized",
      "outputs": [],
      "stateMutability": "nonpayable",
      "type": "function"
    },
    {
      "inputs": [
        {
          "internalType": "string",
          "name": "symbol",
          "type": "string"
        },
        {
          "internalType": "address",
          "name": "oracle",
          "type": "address"
        }
      ],
      "name": "setSymbolOracle",
      "outputs": [],
      "stateMutability": "nonpayable",
      "type": "function"
    },
    {
      "inputs": [
        {
          "internalType": "string",
          "name": "",
          "type": "string"
        }
      ],
      "name": "symbolToOracle",
      "outputs": [
        {
          "internalType": "address",
          "name": "",
          "type": "address"
        }
      ],
      "stateMutability": "view",
      "type": "function"
    },
    {
      "inputs": [
        {
          "internalType": "address",
          "name": "newOwner",
          "type": "address"
        }
      ],
      "name": "transferOwnership",
      "outputs": [],
      "stateMutability": "nonpayable",
      "type": "function"
    },
    {
      "inputs": [
        {
          "internalType": "string",
          "name": "symbol",
          "type": "string"
        },
        {
          "internalType": "uint256",
          "name": "price",
          "type": "uint256"
        }
      ],
      "name": "updatePrice",
      "outputs": [],
      "stateMutability": "nonpayable",
      "type": "function"
    }
  ],
  "bytecode": "0x608080604052346092573315607c5760008054336001600160a01b0319821681178355916001600160a01b03909116907f8be0079c531659141344cd1fd0a4f28419497f9722a3daafe3b4186f6b6457e09080a3600180553360005260046020526040600020600160ff19825416179055610e6090816100988239f35b631e4fbdf760e01b600052600060045260246000fd5b600080fdfe6080604052600436101561001257600080fd5b60003560e01c806314de7a241461086657806314eac4c1146107d657806328269689146107795780634a432a4614610650578063524f3889146105ed578063711bf9b214610565578063715018a61461050c5780638da5cb5b146104e3578063b9181611146104a4578063f25b9caa14610487578063f2fde38b146103fe578063f431b5d5146103485763fcecd14a146100ab57600080fd5b34610314576040366003190112610314576004356001600160401b03811161031457366023820112156103145780600401356100e6816109ca565b916100f46040519384610912565b8183526024602084019260051b820101903682116103145760248101925b82841061031957846024356001600160401b038111610314573660238201121561031457806004013590610145826109ca565b916101536040519384610912565b8083526024602084019160051b8301019136831161031457602401905b8282106103045750505033600052600460205260ff6040600020541680156102f0575b61019c906109e1565b6101a4610ddf565b81518151036102b35760005b82518110156102ad57806101d16101c960019385610db5565b511515610a1e565b61024f6101de8285610db5565b51604051906101ec826108e1565b8152600360208201428152604083016008815260608401918783526102236020610216898d610db5565b5160405192838092610989565b8781520301902094518555518785015551600284015551151591019060ff801983541691151516179055565b6102598185610db5565b517f6e838f2a03741f5f2aff5480963b672fb0dd8430a4dc75db9b67ce009733c9fe604061029761028a8588610db5565b5193825191828092610989565b039020928151908152426020820152a2016101b0565b60018055005b60405162461bcd60e51b8152602060048201526015602482015274082e4e4c2f240d8cadccee8d040dad2e6dac2e8c6d605b1b6044820152606490fd5b506000546001600160a01b03163314610193565b8135815260209182019101610170565b600080fd5b83356001600160401b0381116103145760209161033d839260243691870101610933565b815201930192610112565b34610314576040366003190112610314576004356001600160401b03811161031457610378903690600401610933565b6024356001600160a01b03811691908290036103145760206103f17f0134e6f5996fac027f7faa0c7a9c387e89baea8ced15a0cf3c3f3aeb53367c09926103bd610e01565b60405183816103cc8185610989565b600281520301902080546001600160a01b031916861790556040519182918290610989565b03902092604051908152a2005b34610314576020366003190112610314576104176109b4565b61041f610e01565b6001600160a01b0316801561047157600080546001600160a01b03198116831782556001600160a01b0316907f8be0079c531659141344cd1fd0a4f28419497f9722a3daafe3b4186f6b6457e09080a3005b631e4fbdf760e01b600052600060045260246000fd5b34610314576000366003190112610314576020604051610e108152f35b34610314576020366003190112610314576001600160a01b036104c56109b4565b166000526004602052602060ff604060002054166040519015158152f35b34610314576000366003190112610314576000546040516001600160a01b039091168152602090f35b3461031457600036600319011261031457610525610e01565b600080546001600160a01b0319811682556001600160a01b03167f8be0079c531659141344cd1fd0a4f28419497f9722a3daafe3b4186f6b6457e08280a3005b346103145760403660031901126103145761057e6109b4565b6024359081151590818303610314577f4baf71ac1b8b1858d7ab3d2f65eceedce776ac368d0e05e8f9e9f0bf7ea64e4f916105e46020926105bd610e01565b60018060a01b031694856000526004845260406000209060ff801983541691151516179055565b604051908152a2005b34610314576020366003190112610314576004356001600160401b038111610314576106276106226080923690600401610933565b610ad6565b606060405191805183526020810151602084015260408101516040840152015115156060820152f35b34610314576040366003190112610314576004356001600160401b03811161031457610680903690600401610933565b7f6e838f2a03741f5f2aff5480963b672fb0dd8430a4dc75db9b67ce009733c9fe604061074f6024359333600052600460205260ff8360002054168015610765575b6106cb906109e1565b6106d3610ddf565b6106de851515610a1e565b61074483516106ec816108e1565b868152600360208201428152868301600881526060840191600183528851602081610717818b610989565b878152030190209451855551600185015551600284015551151591019060ff801983541691151516179055565b825191828092610989565b039020928151908152426020820152a260018055005b506000546001600160a01b031633146106c2565b34610314576020366003190112610314576004356001600160401b038111610314576107ab6020913690600401610933565b6107b86040518092610989565b6002815281900382019020546040516001600160a01b039091168152f35b34610314576020366003190112610314576004356001600160401b038111610314576108086020913690600401610933565b6040516108158183610989565b6002815281900383019020546001600160a01b0316158015919061083f575b506040519015158152f35b60ff91506108568360039260405192838092610989565b8481520301902001541682610834565b34610314576020366003190112610314576004356001600160401b038111610314576108a9602061089d6080933690600401610933565b60405192838092610989565b600381520301902080549060018101549060ff6003600283015492015416916040519384526020840152604083015215156060820152f35b608081019081106001600160401b038211176108fc57604052565b634e487b7160e01b600052604160045260246000fd5b90601f801991011681019081106001600160401b038211176108fc57604052565b81601f82011215610314578035906001600160401b0382116108fc5760405192610967601f8401601f191660200185610912565b8284526020838301011161031457816000926020809301838601378301015290565b9081519160005b8381106109a1575050016000815290565b8060208092840101518185015201610990565b600435906001600160a01b038216820361031457565b6001600160401b0381116108fc5760051b60200190565b156109e857565b60405162461bcd60e51b815260206004820152600e60248201526d139bdd08185d5d1a1bdc9a5e995960921b6044820152606490fd5b15610a2557565b60405162461bcd60e51b815260206004820152600d60248201526c496e76616c696420707269636560981b6044820152606490fd5b15610a6157565b60405162461bcd60e51b81526020600482015260136024820152724e6f2076616c6964207072696365206461746160681b6044820152606490fd5b91908203918211610aa957565b634e487b7160e01b600052601160045260246000fd5b519069ffffffffffffffffffff8216820361031457565b604051610ae2816108e1565b6000815260006020820152600060408201526000606082015250604051610b098183610989565b600281528190036020019020546001600160a01b03168015610d4557604051633fabe5a360e21b81529060a082600481845afa90816000938493610cee575b50610bfa575050506020610b629160405192838092610989565b6003815203019020610e10610bb660405192610b7d846108e1565b80548452610baf60ff600360018401549360208801948552600281015460408901520154161515806060870152610a5a565b5142610a9c565b11610bbe5790565b60405162461bcd60e51b81526020600482015260146024820152735374616c652066616c6c6261636b20707269636560601b6044820152606490fd5b90919250610c0a60008413610a1e565b610e10610c178342610a9c565b11610cbb5760206004916040519283809263313ce56760e01b82525afa908115610caf57600091610c6b575b5060ff9160405193610c54856108e1565b845260208401521660408201526001606082015290565b6020813d602011610ca7575b81610c8460209383610912565b81010312610ca357519060ff82168203610ca0575060ff610c43565b80fd5b5080fd5b3d9150610c77565b6040513d6000823e3d90fd5b60405162461bcd60e51b815260206004820152600b60248201526a5374616c6520707269636560a81b6044820152606490fd5b9390925060a0843d60a011610d3d575b81610d0b60a09383610912565b81010312610ca05750610d1d83610abf565b506020830151610d34608060608601519501610abf565b50929138610b48565b3d9150610cfe565b506020610d589160405192838092610989565b6003815203019020610e10610d7360405192610b7d846108e1565b11610d7b5790565b60405162461bcd60e51b81526020600482015260126024820152715374616c652073746f72656420707269636560701b6044820152606490fd5b8051821015610dc95760209160051b010190565b634e487b7160e01b600052603260045260246000fd5b600260015414610df0576002600155565b633ee5aeb560e01b60005260046000fd5b6000546001600160a01b03163303610e1557565b63118cdaa760e01b6000523360045260246000fdfea264697066735822122060eb60488e674937bddc20904a86fe29352db8de36dcc082d91d60f703b93edb64736f6c634300081c0033",
  "linkReferences": {},
  "deployedLinkReferences": {}
}