{
  "_format": "hh-sol-artifact-1",
  "contractName": "AscendaConfidentialCollateral",
  "sourceName": "contracts/AscendaConfidentialCollateral.sol",
  "abi": [
    {
      "inputs": [
        {
          "internalType": "contract IERC20",
          "name": "underlying_",
          "type": "address"
        },
        {
          "internalType": "string",
          "name": "name_",
          "type": "string"
        },
        {
          "internalType": "string",
          "name": "symbol_",
          "type": "string"
        },
        {
          "internalType": "string",
          "name": "tokenURI_",
          "type": "string"
        }
      ],
      "stateMutability": "nonpayable",
      "type": "constructor"
    },
    {
      "inputs": [
        {
          "internalType": "uint256",
          "name": "requestId",
          "type": "uint256"
        }
      ],
      "name": "ConfidentialFungibleTokenInvalidGatewayRequest",
      "type": "error"
    },
    {
      "inputs": [
        {
          "internalType": "address",
          "name": "receiver",
          "type": "address"
        }
      ],
      "name": "ConfidentialFungibleTokenInvalidReceiver",
      "type": "error"
    },
    {
      "inputs": [
        {
          "internalType": "address",
          "name": "sender",
          "type": "address"
        }
      ],
      "name": "ConfidentialFungibleTokenInvalidSender",
      "type": "error"
    },
    {
      "inputs": [
        {
          "internalType": "address",
          "name": "caller",
          "type": "address"
        }
      ],
      "name": "ConfidentialFungibleTokenUnauthorizedCaller",
      "type": "error"
    },
    {
      "inputs": [
        {
          "internalType": "address",
          "name": "holder",
          "type": "address"
        },
        {
          "internalType": "address",
          "name": "spender",
          "type": "address"
        }
      ],
      "name": "ConfidentialFungibleTokenUnauthorizedSpender",
      "type": "error"
    },
    {
      "inputs": [
        {
          "internalType": "euint64",
          "name": "amount",
          "type": "bytes32"
        },
        {
          "internalType": "address",
          "name": "user",
          "type": "address"
        }
      ],
      "name": "ConfidentialFungibleTokenUnauthorizedUseOfEncryptedAmount",
      "type": "error"
    },
    {
      "inputs": [
        {
          "internalType": "address",
          "name": "holder",
          "type": "address"
        }
      ],
      "name": "ConfidentialFungibleTokenZeroBalance",
      "type": "error"
    },
    {
      "inputs": [],
      "name": "EnforcedPause",
      "type": "error"
    },
    {
      "inputs": [],
      "name": "ExpectedPause",
      "type": "error"
    },
    {
      "inputs": [],
      "name": "HandlesAlreadySavedForRequestID",
      "type": "error"
    },
    {
      "inputs": [],
      "name": "InvalidKMSSignatures",
      "type": "error"
    },
    {
      "inputs": [],
      "name": "NoHandleFoundForRequestID",
      "type": "error"
    },
    {
      "inputs": [
        {
          "internalType": "address",
          "name": "owner",
          "type": "address"
        }
      ],
      "name": "OwnableInvalidOwner",
      "type": "error"
    },
    {
      "inputs": [
        {
          "internalType": "address",
          "name": "account",
          "type": "address"
        }
      ],
      "name": "OwnableUnauthorizedAccount",
      "type": "error"
    },
    {
      "inputs": [],
      "name": "ReentrancyGuardReentrantCall",
      "type": "error"
    },
    {
      "inputs": [
        {
          "internalType": "uint8",
          "name": "bits",
          "type": "uint8"
        },
        {
          "internalType": "uint256",
          "name": "value",
          "type": "uint256"
        }
      ],
      "name": "SafeCastOverflowedUintDowncast",
      "type": "error"
    },
    {
      "inputs": [
        {
          "internalType": "address",
          "name": "token",
          "type": "address"
        }
      ],
      "name": "SafeERC20FailedOperation",
      "type": "error"
    },
    {
      "inputs": [],
      "name": "UnsupportedHandleType",
      "type": "error"
    },
    {
      "anonymous": false,
      "inputs": [
        {
          "indexed": true,
          "internalType": "address",
          "name": "owner",
          "type": "address"
        },
        {
          "indexed": true,
          "internalType": "address",
          "name": "spender",
          "type": "address"
        },
        {
          "indexed": false,
          "internalType": "bool",
          "name": "allowed",
          "type": "bool"
        }
      ],
      "name": "AllowanceSet",
      "type": "event"
    },
    {
      "anonymous": false,
      "inputs": [
        {
          "indexed": true,
          "internalType": "euint64",
          "name": "encryptedAmount",
          "type": "bytes32"
        },
        {
          "indexed": false,
          "internalType": "uint64",
          "name": "amount",
          "type": "uint64"
        }
      ],
      "name": "AmountDisclosed",
      "type": "event"
    },
    {
      "anonymous": false,
      "inputs": [
        {
          "indexed": true,
          "internalType": "address",
          "name": "user",
          "type": "address"
        },
        {
          "indexed": false,
          "internalType": "euint64",
          "name": "amount",
          "type": "bytes32"
        }
      ],
      "name": "ConfidentialDeposit",
      "type": "event"
    },
    {
      "anonymous": false,
      "inputs": [
        {
          "indexed": true,
          "internalType": "address",
          "name": "from",
          "type": "address"
        },
        {
          "indexed": true,
          "internalType": "address",
          "name": "to",
          "type": "address"
        },
        {
          "indexed": true,
          "internalType": "euint64",
          "name": "amount",
          "type": "bytes32"
        }
      ],
      "name": "ConfidentialTransfer",
      "type": "event"
    },
    {
      "anonymous": false,
      "inputs": [
        {
          "indexed": true,
          "internalType": "address",
          "name": "from",
          "type": "address"
        },
        {
          "indexed": true,
          "internalType": "address",
          "name": "to",
          "type": "address"
        },
        {
          "indexed": false,
          "internalType": "euint64",
          "name": "amount",
          "type": "bytes32"
        }
      ],
      "name": "ConfidentialWithdrawal",
      "type": "event"
    },
    {
      "anonymous": false,
      "inputs": [
        {
          "indexed": true,
          "internalType": "address",
          "name": "contractAddress",
          "type": "address"
        },
        {
          "indexed": false,
          "internalType": "bool",
          "name": "authorized",
          "type": "bool"
        }
      ],
      "name": "ContractAuthorized",
      "type": "event"
    },
    {
      "anonymous": false,
      "inputs": [
        {
          "indexed": true,
          "internalType": "uint256",
          "name": "requestID",
          "type": "uint256"
        }
      ],
      "name": "DecryptionFulfilled",
      "type": "event"
    },
    {
      "anonymous": false,
      "inputs": [
        {
          "indexed": true,
          "internalType": "address",
          "name": "holder",
          "type": "address"
        },
        {
          "indexed": true,
          "internalType": "address",
          "name": "operator",
          "type": "address"
        },
        {
          "indexed": false,
          "internalType": "uint48",
          "name": "until",
          "type": "uint48"
        }
      ],
      "name": "OperatorSet",
      "type": "event"
    },
    {
      "anonymous": false,
      "inputs": [
        {
          "indexed": true,
          "internalType": "address",
          "name": "previousOwner",
          "type": "address"
        },
        {
          "indexed": true,
          "internalType": "address",
          "name": "newOwner",
          "type": "address"
        }
      ],
      "name": "OwnershipTransferred",
      "type": "event"
    },
    {
      "anonymous": false,
      "inputs": [
        {
          "indexed": false,
          "internalType": "address",
          "name": "account",
          "type": "address"
        }
      ],
      "name": "Paused",
      "type": "event"
    },
    {
      "anonymous": false,
      "inputs": [
        {
          "indexed": false,
          "internalType": "address",
          "name": "account",
          "type": "address"
        }
      ],
      "name": "Unpaused",
      "type": "event"
    },
    {
      "anonymous": false,
      "inputs": [
        {
          "indexed": true,
          "internalType": "uint256",
          "name": "requestId",
          "type": "uint256"
        },
        {
          "indexed": true,
          "internalType": "address",
          "name": "to",
          "type": "address"
        },
        {
          "indexed": false,
          "internalType": "uint256",
          "name": "amount",
          "type": "uint256"
        }
      ],
      "name": "UnwrapFinalized",
      "type": "event"
    },
    {
      "anonymous": false,
      "inputs": [
        {
          "indexed": true,
          "internalType": "uint256",
          "name": "requestId",
          "type": "uint256"
        },
        {
          "indexed": true,
          "internalType": "address",
          "name": "from",
          "type": "address"
        },
        {
          "indexed": true,
          "internalType": "address",
          "name": "to",
          "type": "address"
        },
        {
          "indexed": false,
          "internalType": "uint64",
          "name": "amount",
          "type": "uint64"
        }
      ],
      "name": "UnwrapRequested",
      "type": "event"
    },
    {
      "inputs": [],
      "name": "MAX_SUPPLY",
      "outputs": [
        {
          "internalType": "uint256",
          "name": "",
          "type": "uint256"
        }
      ],
      "stateMutability": "view",
      "type": "function"
    },
    {
      "inputs": [],
      "name": "MIN_DEPOSIT_AMOUNT",
      "outputs": [
        {
          "internalType": "uint256",
          "name": "",
          "type": "uint256"
        }
      ],
      "stateMutability": "view",
      "type": "function"
    },
    {
      "inputs": [
        {
          "internalType": "address",
          "name": "",
          "type": "address"
        },
        {
          "internalType": "address",
          "name": "",
          "type": "address"
        }
      ],
      "name": "allowances",
      "outputs": [
        {
          "internalType": "bool",
          "name": "",
          "type": "bool"
        }
      ],
      "stateMutability": "view",
      "type": "function"
    },
    {
      "inputs": [
        {
          "internalType": "address",
          "name": "",
          "type": "address"
        }
      ],
      "name": "authorizedContracts",
      "outputs": [
        {
          "internalType": "bool",
          "name": "",
          "type": "bool"
        }
      ],
      "stateMutability": "view",
      "type": "function"
    },
    {
      "inputs": [
        {
          "internalType": "address",
          "name": "from",
          "type": "address"
        },
        {
          "internalType": "address",
          "name": "to",
          "type": "address"
        },
        {
          "internalType": "euint64",
          "name": "amount",
          "type": "bytes32"
        }
      ],
      "name": "authorizedTransfer",
      "outputs": [
        {
          "internalType": "euint64",
          "name": "",
          "type": "bytes32"
        }
      ],
      "stateMutability": "nonpayable",
      "type": "function"
    },
    {
      "inputs": [
        {
          "internalType": "address",
          "name": "account",
          "type": "address"
        }
      ],
      "name": "confidentialBalanceOf",
      "outputs": [
        {
          "internalType": "euint64",
          "name": "",
          "type": "bytes32"
        }
      ],
      "stateMutability": "view",
      "type": "function"
    },
    {
      "inputs": [
        {
          "internalType": "address",
          "name": "to",
          "type": "address"
        },
        {
          "internalType": "uint256",
          "name": "amount",
          "type": "uint256"
        }
      ],
      "name": "confidentialDeposit",
      "outputs": [],
      "stateMutability": "nonpayable",
      "type": "function"
    },
    {
      "inputs": [],
      "name": "confidentialTotalSupply",
      "outputs": [
        {
          "internalType": "euint64",
          "name": "",
          "type": "bytes32"
        }
      ],
      "stateMutability": "view",
      "type": "function"
    },
    {
      "inputs": [
        {
          "internalType": "address",
          "name": "to",
          "type": "address"
        },
        {
          "internalType": "externalEuint64",
          "name": "encryptedAmount",
          "type": "bytes32"
        },
        {
          "internalType": "bytes",
          "name": "inputProof",
          "type": "bytes"
        }
      ],
      "name": "confidentialTransfer",
      "outputs": [
        {
          "internalType": "euint64",
          "name": "",
          "type": "bytes32"
        }
      ],
      "stateMutability": "nonpayable",
      "type": "function"
    },
    {
      "inputs": [
        {
          "internalType": "address",
          "name": "to",
          "type": "address"
        },
        {
          "internalType": "euint64",
          "name": "amount",
          "type": "bytes32"
        }
      ],
      "name": "confidentialTransfer",
      "outputs": [
        {
          "internalType": "euint64",
          "name": "",
          "type": "bytes32"
        }
      ],
      "stateMutability": "nonpayable",
      "type": "function"
    },
    {
      "inputs": [
        {
          "internalType": "address",
          "name": "to",
          "type": "address"
        },
        {
          "internalType": "euint64",
          "name": "amount",
          "type": "bytes32"
        },
        {
          "internalType": "bytes",
          "name": "data",
          "type": "bytes"
        }
      ],
      "name": "confidentialTransferAndCall",
      "outputs": [
        {
          "internalType": "euint64",
          "name": "transferred",
          "type": "bytes32"
        }
      ],
      "stateMutability": "nonpayable",
      "type": "function"
    },
    {
      "inputs": [
        {
          "internalType": "address",
          "name": "to",
          "type": "address"
        },
        {
          "internalType": "externalEuint64",
          "name": "encryptedAmount",
          "type": "bytes32"
        },
        {
          "internalType": "bytes",
          "name": "inputProof",
          "type": "bytes"
        },
        {
          "internalType": "bytes",
          "name": "data",
          "type": "bytes"
        }
      ],
      "name": "confidentialTransferAndCall",
      "outputs": [
        {
          "internalType": "euint64",
          "name": "transferred",
          "type": "bytes32"
        }
      ],
      "stateMutability": "nonpayable",
      "type": "function"
    },
    {
      "inputs": [
        {
          "internalType": "address",
          "name": "from",
          "type": "address"
        },
        {
          "internalType": "address",
          "name": "to",
          "type": "address"
        },
        {
          "internalType": "externalEuint64",
          "name": "encryptedAmount",
          "type": "bytes32"
        },
        {
          "internalType": "bytes",
          "name": "inputProof",
          "type": "bytes"
        }
      ],
      "name": "confidentialTransferFrom",
      "outputs": [
        {
          "internalType": "euint64",
          "name": "transferred",
          "type": "bytes32"
        }
      ],
      "stateMutability": "nonpayable",
      "type": "function"
    },
    {
      "inputs": [
        {
          "internalType": "address",
          "name": "from",
          "type": "address"
        },
        {
          "internalType": "address",
          "name": "to",
          "type": "address"
        },
        {
          "internalType": "euint64",
          "name": "amount",
          "type": "bytes32"
        }
      ],
      "name": "confidentialTransferFrom",
      "outputs": [
        {
          "internalType": "euint64",
          "name": "transferred",
          "type": "bytes32"
        }
      ],
      "stateMutability": "nonpayable",
      "type": "function"
    },
    {
      "inputs": [
        {
          "internalType": "address",
          "name": "from",
          "type": "address"
        },
        {
          "internalType": "address",
          "name": "to",
          "type": "address"
        },
        {
          "internalType": "externalEuint64",
          "name": "encryptedAmount",
          "type": "bytes32"
        },
        {
          "internalType": "bytes",
          "name": "inputProof",
          "type": "bytes"
        },
        {
          "internalType": "bytes",
          "name": "data",
          "type": "bytes"
        }
      ],
      "name": "confidentialTransferFromAndCall",
      "outputs": [
        {
          "internalType": "euint64",
          "name": "transferred",
          "type": "bytes32"
        }
      ],
      "stateMutability": "nonpayable",
      "type": "function"
    },
    {
      "inputs": [
        {
          "internalType": "address",
          "name": "from",
          "type": "address"
        },
        {
          "internalType": "address",
          "name": "to",
          "type": "address"
        },
        {
          "internalType": "euint64",
          "name": "amount",
          "type": "bytes32"
        },
        {
          "internalType": "bytes",
          "name": "data",
          "type": "bytes"
        }
      ],
      "name": "confidentialTransferFromAndCall",
      "outputs": [
        {
          "internalType": "euint64",
          "name": "transferred",
          "type": "bytes32"
        }
      ],
      "stateMutability": "nonpayable",
      "type": "function"
    },
    {
      "inputs": [
        {
          "internalType": "address",
          "name": "from",
          "type": "address"
        },
        {
          "internalType": "address",
          "name": "to",
          "type": "address"
        },
        {
          "internalType": "euint64",
          "name": "amount",
          "type": "bytes32"
        }
      ],
      "name": "confidentialWithdrawFrom",
      "outputs": [],
      "stateMutability": "nonpayable",
      "type": "function"
    },
    {
      "inputs": [],
      "name": "decimals",
      "outputs": [
        {
          "internalType": "uint8",
          "name": "",
          "type": "uint8"
        }
      ],
      "stateMutability": "view",
      "type": "function"
    },
    {
      "inputs": [
        {
          "internalType": "euint64",
          "name": "encryptedAmount",
          "type": "bytes32"
        }
      ],
      "name": "discloseEncryptedAmount",
      "outputs": [],
      "stateMutability": "nonpayable",
      "type": "function"
    },
    {
      "inputs": [
        {
          "internalType": "contract IERC20",
          "name": "token",
          "type": "address"
        },
        {
          "internalType": "address",
          "name": "to",
          "type": "address"
        },
        {
          "internalType": "uint256",
          "name": "amount",
          "type": "uint256"
        }
      ],
      "name": "emergencyWithdraw",
      "outputs": [],
      "stateMutability": "nonpayable",
      "type": "function"
    },
    {
      "inputs": [
        {
          "internalType": "uint256",
          "name": "requestId",
          "type": "uint256"
        },
        {
          "internalType": "uint64",
          "name": "amount",
          "type": "uint64"
        },
        {
          "internalType": "bytes[]",
          "name": "signatures",
          "type": "bytes[]"
        }
      ],
      "name": "finalizeDiscloseEncryptedAmount",
      "outputs": [],
      "stateMutability": "nonpayable",
      "type": "function"
    },
    {
      "inputs": [
        {
          "internalType": "uint256",
          "name": "requestId",
          "type": "uint256"
        },
        {
          "internalType": "uint64",
          "name": "amount",
          "type": "uint64"
        },
        {
          "internalType": "bytes[]",
          "name": "signatures",
          "type": "bytes[]"
        }
      ],
      "name": "finalizeUnwrap",
      "outputs": [],
      "stateMutability": "nonpayable",
      "type": "function"
    },
    {
      "inputs": [],
      "name": "getContractBalance",
      "outputs": [
        {
          "internalType": "uint256",
          "name": "",
          "type": "uint256"
        }
      ],
      "stateMutability": "view",
      "type": "function"
    },
    {
      "inputs": [
        {
          "internalType": "address",
          "name": "owner",
          "type": "address"
        },
        {
          "internalType": "address",
          "name": "operator",
          "type": "address"
        }
      ],
      "name": "isAuthorizedFor",
      "outputs": [
        {
          "internalType": "bool",
          "name": "",
          "type": "bool"
        }
      ],
      "stateMutability": "view",
      "type": "function"
    },
    {
      "inputs": [
        {
          "internalType": "address",
          "name": "holder",
          "type": "address"
        },
        {
          "internalType": "address",
          "name": "spender",
          "type": "address"
        }
      ],
      "name": "isOperator",
      "outputs": [
        {
          "internalType": "bool",
          "name": "",
          "type": "bool"
        }
      ],
      "stateMutability": "view",
      "type": "function"
    },
    {
      "inputs": [],
      "name": "name",
      "outputs": [
        {
          "internalType": "string",
          "name": "",
          "type": "string"
        }
      ],
      "stateMutability": "view",
      "type": "function"
    },
    {
      "inputs": [],
      "name": "owner",
      "outputs": [
        {
          "internalType": "address",
          "name": "",
          "type": "address"
        }
      ],
      "stateMutability": "view",
      "type": "function"
    },
    {
      "inputs": [],
      "name": "pause",
      "outputs": [],
      "stateMutability": "nonpayable",
      "type": "function"
    },
    {
      "inputs": [],
      "name": "paused",
      "outputs": [
        {
          "internalType": "bool",
          "name": "",
          "type": "bool"
        }
      ],
      "stateMutability": "view",
      "type": "function"
    },
    {
      "inputs": [],
      "name": "rate",
      "outputs": [
        {
          "internalType": "uint256",
          "name": "",
          "type": "uint256"
        }
      ],
      "stateMutability": "view",
      "type": "function"
    },
    {
      "inputs": [],
      "name": "renounceOwnership",
      "outputs": [],
      "stateMutability": "nonpayable",
      "type": "function"
    },
    {
      "inputs": [
        {
          "internalType": "address",
          "name": "spender",
          "type": "address"
        },
        {
          "internalType": "bool",
          "name": "allowed",
          "type": "bool"
        }
      ],
      "name": "setAllowance",
      "outputs": [],
      "stateMutability": "nonpayable",
      "type": "function"
    },
    {
      "inputs": [
        {
          "internalType": "address",
          "name": "contractAddress",
          "type": "address"
        },
        {
          "internalType": "bool",
          "name": "authorized",
          "type": "bool"
        }
      ],
      "name": "setContractAuthorization",
      "outputs": [],
      "stateMutability": "nonpayable",
      "type": "function"
    },
    {
      "inputs": [
        {
          "internalType": "address",
          "name": "operator",
          "type": "address"
        },
        {
          "internalType": "uint48",
          "name": "until",
          "type": "uint48"
        }
      ],
      "name": "setOperator",
      "outputs": [],
      "stateMutability": "nonpayable",
      "type": "function"
    },
    {
      "inputs": [],
      "name": "symbol",
      "outputs": [
        {
          "internalType": "string",
          "name": "",
          "type": "string"
        }
      ],
      "stateMutability": "view",
      "type": "function"
    },
    {
      "inputs": [],
      "name": "tokenURI",
      "outputs": [
        {
          "internalType": "string",
          "name": "",
          "type": "string"
        }
      ],
      "stateMutability": "view",
      "type": "function"
    },
    {
      "inputs": [
        {
          "internalType": "address",
          "name": "newOwner",
          "type": "address"
        }
      ],
      "name": "transferOwnership",
      "outputs": [],
      "stateMutability": "nonpayable",
      "type": "function"
    },
    {
      "inputs": [],
      "name": "underlying",
      "outputs": [
        {
          "internalType": "contract IERC20",
          "name": "",
          "type": "address"
        }
      ],
      "stateMutability": "view",
      "type": "function"
    },
    {
      "inputs": [],
      "name": "unpause",
      "outputs": [],
      "stateMutability": "nonpayable",
      "type": "function"
    }
  ],
  "bytecode": "0x610100806040523461067057613d7b803803809161001d8285610675565b83398101906080818303126106705780516001600160a01b0381168082036106705760208301516001600160401b038111610670578461005e9185016106b3565b60408401519093906001600160401b03811161067057856100809183016106b3565b60608201519095906001600160401b038111610670576100a092016106b3565b926001600055331561065a5760018054610100600160a81b0319811633600881811b610100600160a81b0316929092179093551c6001600160a01b03167f8be0079c531659141344cd1fd0a4f28419497f9722a3daafe3b4186f6b6457e0600080a38051906001600160401b0382116104765760065490600182811c92168015610650575b60208310146104565781601f8493116105e0575b50602090601f83116001146105785760009261056d575b50508160011b916000199060031b1c1916176006555b83516001600160401b03811161047657600754600181811c91168015610563575b602082101461045657601f81116104fe575b50602094601f82116001146104975794819293949560009261048c575b50508160011b916000199060031b1c1916176007555b82516001600160401b03811161047657600854600181811c9116801561046c575b602082101461045657601f81116103f1575b506020601f821160011461038a578192939460009261037f575b50508160011b916000199060031b1c1916176008555b1561033a5760ff6102458260069360805261072c565b60a081905260c083905216106103305760ff60a0511660ff60c05116900360ff811161031a5760ff16604d811161031a57600a0a60e0525b60e051156102d557604051613559908161082282396080518181816109a801528181610a0301528181610ebf0152611d60015260a05181505060c05181505060e05181818161041b01528181610e2d0152611d3a0152f35b60405162461bcd60e51b815260206004820152601d60248201527f4143433a20496e76616c696420726174652063616c63756c6174696f6e0000006044820152606490fd5b634e487b7160e01b600052601160045260246000fd5b600160e05261027d565b60405162461bcd60e51b815260206004820152601d60248201527f4143433a20496e76616c696420756e6465726c79696e6720746f6b656e0000006044820152606490fd5b015190503880610219565b601f198216906008600052806000209160005b8181106103d9575095836001959697106103c0575b505050811b0160085561022f565b015160001960f88460031b161c191690553880806103b2565b9192602060018192868b01518155019401920161039d565b60086000527ff3f7a9fe364faab93b216da50a3214154f22a0a2b415b23a84c8169e8b636ee3601f830160051c8101916020841061044c575b601f0160051c01905b81811061044057506101ff565b60008155600101610433565b909150819061042a565b634e487b7160e01b600052602260045260246000fd5b90607f16906101ed565b634e487b7160e01b600052604160045260246000fd5b0151905038806101b6565b601f198216956007600052806000209160005b8881106104e6575083600195969798106104cd575b505050811b016007556101cc565b015160001960f88460031b161c191690553880806104bf565b919260206001819286850151815501940192016104aa565b60076000527fa66cc928b5edb82af9bd49922954155ab7b0942694bea4ce44661d9a8736c688601f830160051c81019160208410610559575b601f0160051c01905b81811061054d5750610199565b60008155600101610540565b9091508190610537565b90607f1690610187565b015190503880610150565b600660009081528281209350601f198516905b8181106105c857509084600195949392106105af575b505050811b01600655610166565b015160001960f88460031b161c191690553880806105a1565b9293602060018192878601518155019501930161058b565b60066000529091507ff652222313e28459528d920b65115c16c04f3efc82aaedc97be59f3f377c0d3f601f840160051c81019160208510610646575b90601f859493920160051c01905b8181106106375750610139565b6000815584935060010161062a565b909150819061061c565b91607f1691610125565b631e4fbdf760e01b600052600060045260246000fd5b600080fd5b601f909101601f19168101906001600160401b0382119082101761047657604052565b6001600160401b03811161047657601f01601f191660200190565b81601f82011215610670578051906106ca82610698565b926106d86040519485610675565b828452602083830101116106705760005b8281106106fe57505060206000918301015290565b806020809284010151828287010152016106e9565b90816020910312610670575160ff811681036106705790565b60405163313ce56760e01b81526001600160a01b039190911690602081600481855afa600091816107f0575b506107eb575060008091604051602081019063313ce56760e01b825260048152610783602482610675565b51915afa3d156107e3573d9061079882610698565b916107a66040519384610675565b82523d6000602084013e5b806107d7575b6107c15750601290565b806020806107d493518301019101610713565b90565b506020815110156107b7565b6060906107b1565b905090565b61081391925060203d60201161081a575b61080b8183610675565b810190610713565b9038610758565b503d61080156fe6080604052600436101561001257600080fd5b60003560e01c806306fdde03146102875780631ea30fef146102825780632c4e722e1461027d5780632fb74e6214610278578063313ce5671461027357806332cb6b0c1461026e578063344ff1011461026957806334c45743146102645780633c130d901461025f5780633f4ba83a1461025a578063537d3c5014610255578063540952271461025057806355b6ed5c1461024b5780635bebed7e146102465780635c975abb146102415780636919ce171461023c5780636f307dc3146102375780636f9fb98a14610232578063715018a61461022d5780637279e2641461022857806373ddcfb4146102235780638456cb591461021e5780638da5cb5b1461021957806390f6e7a31461021457806395d89b411461020f5780639f1aa71f1461020a578063b6363cf214610205578063b88baa8d14610200578063c535803c146101fb578063c7b8a75e146101f6578063d4febb96146101f1578063d5b9221b146101ec578063de642119146101e7578063e064b9bb146101e2578063e63ea408146101dd578063eb3155b5146101d8578063f2fde38b146101d3578063f4671693146101ce5763f60ccc86146101c957600080fd5b611a87565b611a1b565b61197a565b6118d1565b611821565b6117b3565b611731565b6116ef565b611652565b6115d2565b611411565b6112cf565b6112ac565b61107b565b610f97565b610ddd565b610db0565b610d57565b610cec565b610c27565b610a7f565b6109d7565b610992565b6108fe565b6108ac565b610871565b610827565b6107e4565b6106fb565b6106a4565b6105ec565b61055f565b610522565b610500565b6104e4565b61047c565b610403565b6103e7565b6102f1565b600091031261029757565b600080fd5b919082519283825260005b8481106102c8575050826000602080949584010152601f8019910116010190565b806020809284010151828286010152016102a7565b9060206102ee92818152019061029c565b90565b346102975760003660031901126102975760405160006006548060011c90600181169081156103dd575b6020831082146103c95782855260208501919081156103b0575060011461035d575b6103598461034d81860382610b0c565b604051918291826102dd565b0390f35b600660009081529250907ff652222313e28459528d920b65115c16c04f3efc82aaedc97be59f3f377c0d3f5b81841061039c5750500161034d8261033d565b805484840152602090930192600101610389565b60ff191682525090151560051b01905061034d8261033d565b634e487b7160e01b84526022600452602484fd5b91607f169161031b565b34610297576000366003190112610297576020604051600a8152f35b346102975760003660031901126102975760206040517f00000000000000000000000000000000000000000000000000000000000000008152f35b6001600160a01b0381160361029757565b9181601f84011215610297578235916001600160401b038311610297576020838186019501011161029757565b34610297576060366003190112610297576004356104998161043e565b602435604435916001600160401b038311610297576104d56104dc926104cf6104c8602096369060040161044f565b3691610b75565b9061214e565b903361227a565b604051908152f35b3461029757600036600319011261029757602060405160068152f35b346102975760003660031901126102975760206040516001600160401b038152f35b346102975760203660031901126102975760043561053f8161043e565b60018060a01b031660005260026020526020604060002054604051908152f35b346102975760a03660031901126102975760043561057c8161043e565b602435906105898261043e565b604435916064356001600160401b038111610297576105ac90369060040161044f565b60843593916001600160401b03851161029757610359956105d46105dc96369060040161044f565b959094611b8c565b6040519081529081906020820190565b346102975760003660031901126102975760405160006008548060011c906001811690811561069a575b6020831082146103c95782855260208501919081156103b05750600114610647576103598461034d81860382610b0c565b600860009081529250907ff3f7a9fe364faab93b216da50a3214154f22a0a2b415b23a84c8169e8b636ee35b8184106106865750500161034d8261033d565b805484840152602090930192600101610673565b91607f1691610616565b34610297576000366003190112610297576106bd612359565b6106c561278e565b60ff19600154166001557f5db9ee0a495bf2e6ff9c91a7834c1ba4fdd244a5e8aa4e537bd38aeae4b073aa6020604051338152a1005b3461029757600060603660031901126107dd5760043561071a8161043e565b602435604435916001600160401b0383116107e05761074061075d93369060040161044f565b92909161075733836107523382612bc8565b611c1d565b336122ad565b6000805160206134a4833981519152546001600160a01b031691823b156107dd57604051630f8e573b60e21b8152600481018390523360248201529281908490604490829084905af19283156107d857610359936107c8575b50506040519081529081906020820190565b816107d291610b0c565b386107b6565b611c97565b80fd5b8380fd5b34610297576000366003190112610297576020600554604051908152f35b60409060031901126102975760043561081a8161043e565b906024356102ee8161043e565b3461029757602060ff61086561083c36610802565b6001600160a01b039182166000908152600a865260408082209290931681526020919091522090565b54166040519015158152f35b346102975760403660031901126102975760206104dc6004356108938161043e565b602435906108a633836107523382612bc8565b3361227a565b3461029757600036600319011261029757602060ff600154166040519015158152f35b8015150361029757565b6040906003190112610297576004356108f18161043e565b906024356102ee816108cf565b346102975761090c366108d9565b6001600160a01b038216916109629082906109519061092c861515611c45565b33600052600a60205260406000209060018060a01b0316600052602052604060002090565b9060ff801983541691151516179055565b60405190151581527fc8391e3bda5a718eb1d6a488d1624819978836e7cc4dbc558596ce012ef24ebf60203392a3005b34610297576000366003190112610297576040517f00000000000000000000000000000000000000000000000000000000000000006001600160a01b03168152602090f35b34610297576000366003190112610297576040516370a0823160e01b81523060048201526020816024817f00000000000000000000000000000000000000000000000000000000000000006001600160a01b03165afa80156107d85761035991600091610a50575b506040519081529081906020820190565b610a72915060203d602011610a78575b610a6a8183610b0c565b810190611c88565b38610a3f565b503d610a60565b3461029757600036600319011261029757610a98612359565b60018054610100600160a81b0319811690915560009060081c6001600160a01b03167f8be0079c531659141344cd1fd0a4f28419497f9722a3daafe3b4186f6b6457e08280a3005b602435906001600160401b038216820361029757565b634e487b7160e01b600052604160045260246000fd5b90601f801991011681019081106001600160401b03821117610b2d57604052565b610af6565b60405190610b41608083610b0c565b565b6001600160401b038111610b2d5760051b60200190565b6001600160401b038111610b2d57601f01601f191660200190565b929192610b8182610b5a565b91610b8f6040519384610b0c565b829481845281830111610297578281602093846000960137010152565b929192610bb882610b43565b93610bc66040519586610b0c565b602085848152019260051b8201918183116102975780935b838510610bec575050505050565b84356001600160401b03811161029757820183601f8201121561029757602091610c1c8583858095359101610b75565b815201940193610bde565b3461029757606036600319011261029757600435610c43610ae0565b6044356001600160401b038111610297573660238201121561029757610c76610c7c913690602481600401359101610bac565b83612385565b816000526004602052604060002054908115610cd75760207f83bbbc07896439e5d950a6cead04cbc676180af7a61cecf43f5296475057f571916001600160401b0360405191168152a2600090815260046020526040812055005b82630ab5f57d60e01b60005260045260246000fd5b3461029757606036600319011261029757600435610d08610ae0565b604435916001600160401b0383116102975736602384011215610297578260040135916001600160401b038311610297573660248460051b86010111610297576024610d55940191611ca3565b005b3461029757600036600319011261029757610d70612359565b610d786124c9565b600160ff19815416176001557f62e78cea01bee320cd4e420270b5ea74000d11b0c9f74754ebdbfc544b05a2586020604051338152a1005b346102975760003660031901126102975760015460405160089190911c6001600160a01b03168152602090f35b3461029757604036600319011261029757600435610dfa8161043e565b602435610e056124c9565b610e0d612467565b6001600160a01b03821691610e23831515611c45565b600a8210610f5a577f0000000000000000000000000000000000000000000000000000000000000000908115610f555781830680840393808511610f505714610efc57610a3f610ee884610ee3610ea6610ea1610eef977fa016e5fcabdc7d6dcea0c74bb8f6695417703af55cf63c082ec6236ed7dbab7499611f40565b6124e6565b91610ebb6001600160401b0384161515611f4a565b30337f0000000000000000000000000000000000000000000000000000000000000000612519565b61255d565b809261256f565b0390a2610d556001600055565b60405162461bcd60e51b815260206004820152602660248201527f4143433a20496e73756666696369656e7420616d6f756e74206166746572207360448201526563616c696e6760d01b6064820152608490fd5b611f2a565b611f14565b60405162461bcd60e51b81526020600482015260156024820152741050d0ce88105b5bdd5b9d081d1bdbc81cdb585b1b605a1b6044820152606490fd5b346102975760003660031901126102975760405160006007548060011c9060018116908115611045575b6020831082146103c95782855260208501919081156103b05750600114610ff2576103598461034d81860382610b0c565b600760009081529250907fa66cc928b5edb82af9bd49922954155ab7b0942694bea4ce44661d9a8736c6885b8184106110315750500161034d8261033d565b80548484015260209093019260010161101e565b91607f1691610fc1565b6060906003190112610297576004356110678161043e565b906024356110748161043e565b9060443590565b346102975761120e7fcbf59be7fc2f8189df626afb30fa9787501abe60f4d56cb14d0257f3856042326110ad3661104f565b9291939033600052600960205260ff604060002054168015611292575b6110d390611fa1565b6110db6124c9565b6110e3612467565b6001600160a01b038116946105dc906110fd871515611c45565b6001600160a01b0381169561119f90611137903389141580611269575b61121b575b61113161112c3083612bc8565b612049565b8361267d565b936111816111566111466120a5565b87611150826120dd565b52612f77565b91611171611162610b32565b6001600160a01b039096168652565b6001600160a01b03166020850152565b6000604084015260016060840152600052600b602052604060002090565b815181546001600160a01b0319166001600160a01b039182161782556020830151600190920180546040850151606090950151939092166001600160e81b03199092169190911760a09390931b67ffffffffffffffff60a01b169290921790151560e01b60ff60e01b16179055565b0390a3610d556001600055565b61126461125f611258336112418860018060a01b0316600052600a602052604060002090565b9060018060a01b0316600052602052604060002090565b5460ff1690565b611fe3565b61111f565b5060015461128a9060081c6001600160a01b03165b6001600160a01b031690565b33141561111a565b506001543360089190911c6001600160a01b0316146110ca565b346102975760206112c56112bf36610802565b906120fe565b6040519015158152f35b34610297576112dd3661104f565b909133600052600960205260ff6040600020541680156113f7575b61130190611fa1565b6113096124c9565b61131d6001600160a01b0384161515611c45565b6001600160a01b03811633811415806113dc575b611351575b6103596105dc84868561134c61112c3085612bc8565b61227a565b6000908152600a6020908152604080832033845290915290205490919060ff161561137d579038611336565b60405162461bcd60e51b815260206004820152603160248201527f4143433a204e6f7420617574686f72697a656420746f207472616e736665722060448201527066726f6d2074686973206164647265737360781b6064820152608490fd5b506001543360089190911c6001600160a01b03161415611331565b506001543360089190911c6001600160a01b0316146112f8565b346102975760203660031901126102975760043561142f3382612bc8565b806115bd575b61144190823391611c1d565b6114496120a5565b8051156115b8578160208201526000805160206134c4833981519152549061148b61127e61127e6000805160206134a48339815191525460018060a01b031690565b803b156102975760006040518092637d6e912360e11b82528183816114b38860048301612f28565b03925af180156107d8576115a3575b507f5ea69329017273582817d320489fbd94f775580e90c092699ca6f3d12fdf7d00546114f99061127e906001600160a01b031681565b90813b1561029757604051633263b83b60e01b815291600090839081838161152d631c9e789960e21b888b60048501612f39565b03925af19182156107d85761154892611588575b50826132e0565b6115756115636000805160206134c483398151915254612f68565b6000805160206134c483398151915255565b6000526004602052604060002055600080f35b80611597600061159d93610b0c565b8061028c565b38611541565b8061159760006115b293610b0c565b386114c2565b6120c7565b506114416115cb3083612bc8565b9050611435565b3461029757600060803660031901126107dd576004356115f18161043e565b6024356115fd8161043e565b606435916044356001600160401b03841161164e5761162361075d94369060040161044f565b93909261163533846107523382612bc8565b611649338261164433826120fe565b611b5e565b6122ad565b8480fd5b346102975760403660031901126102975760043561166f8161043e565b6024359065ffffffffffff8216809203610297573360009081526003602090815260408083206001600160a01b03851684529091529020805465ffffffffffff1916831790556040519182526001600160a01b03169033907f921a218a75d18e8ec5704851e6b234a85725b21a2521ce889622c35dedc1fa1290602090a3005b346102975760203660031901126102975760043561170c8161043e565b60018060a01b03166000526009602052602060ff604060002054166040519015158152f35b3461029757600060803660031901126107dd576004356117508161043e565b602435906044356001600160401b0381116107e05761177390369060040161044f565b90916064356001600160401b0381116117af5761075d946104cf61179e6117a893369060040161044f565b9690953691610b75565b90336122ad565b8580fd5b3461029757600060803660031901126107dd576004356117d28161043e565b602435906117df8261043e565b604435916064356001600160401b03811161164e5761075d936104cf61180c61181b93369060040161044f565b6104c8338861164433826120fe565b9161227a565b346102975760603660031901126102975760043561183e8161043e565b60243561184a8161043e565b60443590611856612359565b61185e61278e565b6118726001600160a01b0382161515611c45565b811561188157610d5592612489565b60405162461bcd60e51b815260206004820152602260248201527f4143433a20416d6f756e74206d7573742062652067726561746572207468616e604482015261020360f41b6064820152608490fd5b34610297576119056118e23661104f565b90600093926118f633846107523382612bc8565b61134c338261164433826120fe565b6000805160206134a4833981519152549091906001600160a01b0316803b1561197657604051630f8e573b60e21b8152600481018490523360248201529082908290604490829084905af180156107d857611966575b604051838152602090f35b8161197091610b0c565b3861195b565b5080fd5b34610297576020366003190112610297576004356119978161043e565b61199f612359565b6001600160a01b038116908115611a055760018054610100600160a81b03198116600893841b610100600160a81b031617909155901c6001600160a01b03167f8be0079c531659141344cd1fd0a4f28419497f9722a3daafe3b4186f6b6457e0600080a3005b631e4fbdf760e01b600052600060045260246000fd5b34610297576020611a2b36610802565b9060018060a01b031680600052600a835260ff611a5e8360406000209060018060a01b0316600052602052604060002090565b5416918215611a74575b50506040519015158152f35b6001600160a01b03161490503880611a68565b3461029757611a95366108d9565b90611a9e612359565b6001600160a01b031690611ab3821515611c45565b308214611b1957611b147f3213ab8ec2ed122402f038736b41878b69ae9f61f49a7edd0666bce891d29fc991836000526009602052611b028160406000209060ff801983541691151516179055565b60405190151581529081906020820190565b0390a2005b60405162461bcd60e51b815260206004820152601a60248201527f4143433a2043616e6e6f7420617574686f72697a652073656c660000000000006044820152606490fd5b15611b67575050565b631ae7729b60e11b60009081526001600160a01b039182166004529116602452604490fd5b92916104cf611bab9293611bb19897966104c8338861164433826120fe565b916122ad565b6000805160206134a4833981519152549091906000906001600160a01b0316803b1561197657604051630f8e573b60e21b8152600481018590523360248201529082908290818381604481015b03925af180156107d857611c10575050565b81611c1a91610b0c565b50565b15611c26575050565b63118f6e5360e31b60005260045260018060a01b031660245260446000fd5b15611c4c57565b60405162461bcd60e51b81526020600482015260146024820152734143433a20496e76616c6964206164647265737360601b6044820152606490fd5b90816020910312610297575190565b6040513d6000823e3d90fd5b91611cbc90611cc29294611cb5612467565b3691610bac565b82612385565b6001600160401b03611cf56001611ce384600052600b602052604060002090565b015461127e60e082901c60ff16611e25565b92611d19611d0d84600052600b602052604060002090565b60016000918281550155565b16611d25811515611e71565b6040516370a0823160e01b81523060048201527f000000000000000000000000000000000000000000000000000000000000000091909102927f000000000000000000000000000000000000000000000000000000000000000091906020826024816001600160a01b0387165afa9283156107d8578582611ddf92611dda837f3dfb242b8d28208296d1825b7d5f4943eea1947d786b543c707dfeb54139942798611df998600091611e06575b501015611ebd565b612489565b6040519485526001600160a01b0316939081906020820190565b0390a3610b416001600055565b611e1f915060203d602011610a7857610a6a8183610b0c565b38611dd2565b15611e2c57565b60405162461bcd60e51b815260206004820152601b60248201527f4143433a20496e76616c696420756e77726170207265717565737400000000006044820152606490fd5b15611e7857565b60405162461bcd60e51b815260206004820152601d60248201527f4143433a20496e76616c69642064656372797074656420616d6f756e740000006044820152606490fd5b15611ec457565b60405162461bcd60e51b815260206004820152602260248201527f4143433a20496e73756666696369656e7420636f6e74726163742062616c616e604482015261636560f01b6064820152608490fd5b634e487b7160e01b600052601260045260246000fd5b634e487b7160e01b600052601160045260246000fd5b8115610f55570490565b15611f5157565b60405162461bcd60e51b815260206004820152602260248201527f4143433a20436f6e666964656e7469616c20616d6f756e7420746f6f20736d616044820152611b1b60f21b6064820152608490fd5b15611fa857565b60405162461bcd60e51b81526020600482015260136024820152721050d0ce88139bdd08185d5d1a1bdc9a5e9959606a1b6044820152606490fd5b15611fea57565b60405162461bcd60e51b815260206004820152603160248201527f4143433a204e6f7420617574686f72697a656420746f2077697468647261772060448201527066726f6d2074686973206164647265737360781b6064820152608490fd5b1561205057565b60405162461bcd60e51b815260206004820152602760248201527f4143433a20436f6e7472616374206e6f7420617574686f72697a656420666f7260448201526608185b5bdd5b9d60ca1b6064820152608490fd5b604080519091906120b68382610b0c565b6001815291601f1901366020840137565b634e487b7160e01b600052603260045260246000fd5b8051156115b85760200190565b80518210156115b85760209160051b010190565b6001600160a01b0382811691169081149190821561211b57505090565b60009081526003602090815260408083206001600160a01b0390941683529290522065ffffffffffff9150541642111590565b6000805160206134e48339815191525461219c92602092909161217b9061127e906001600160a01b031681565b90600060405180968195829463196d0b9b60e01b84523390600485016127d9565b03925af19081156107d857600091612221575b506000805160206134a4833981519152546121d49061127e906001600160a01b031681565b803b1561029757604051630f8e573b60e21b815260048101839052336024820152906000908290604490829084905af180156107d857612212575090565b8061159760006102ee93610b0c565b61223a915060203d602011610a7857610a6a8183610b0c565b386121af565b1561224757565b631a9bbf8b60e11b600052600060045260246000fd5b1561226457565b636e41946d60e11b600052600060045260246000fd5b6102ee9291906122946001600160a01b0382161515612240565b6122a86001600160a01b038316151561225d565b612838565b9294936122bf6122c99293848661227a565b9586848633612a3b565b9160206122d4612e82565b606460018060a01b036000805160206134e483398151915254169560006040519788948593637702dcff60e01b855260048501528b602485015260448401525af19283156107d857611c1a936123349160009161233a575b508096612af7565b91612838565b612353915060203d602011610a7857610a6a8183610b0c565b3861232c565b60015460081c6001600160a01b0316330361237057565b63118cdaa760e01b6000523360045260246000fd5b9081600052600080516020613504833981519152602052604060002054156124565781600052600080516020613504833981519152602052604060002060405190816020825491828152019160005260206000209060005b8181106124405750505091816123fb61240093612404950382610b0c565b612d31565b1590565b61242f577f1af0453083661051f6e56e5c070792320652e612154bf9af8637bb1e7655b99d600080a2565b63cf6c44e960e01b60005260046000fd5b82548452602090930192600192830192016123dd565b63d66ca67560e01b60005260046000fd5b600260005414612478576002600055565b633ee5aeb560e01b60005260046000fd5b60405163a9059cbb60e01b60208201526001600160a01b039092166024830152604480830193909352918152610b41916124c4606483610b0c565b612e27565b60ff600154166124d557565b63d93c066560e01b60005260046000fd5b6001600160401b038111612500576001600160401b031690565b6306dfcc6560e41b600052604060045260245260446000fd5b6040516323b872dd60e01b60208201526001600160a01b039283166024820152929091166044830152606480830193909352918152610b41916124c4608483610b0c565b6001600160401b036102ee9116612edf565b6001600160a01b03811680158015939092906125bb9061258e8661225d565b6000906125b56125a082600554613128565b9093906125ac8161311e565b50600555612edf565b9161327d565b93849315612626576125cf84600554612af7565b6125d88161311e565b506005555b612616575b506125ec8261311e565b5060007f67500e8d0ed826d2194f514dd0d8124f35648ab6e3fb5e6ed867134cffe661e98180a490565b6126209083613447565b386125e2565b6001600160a01b038216600090815260026020526040902061264b9085905b546131a8565b6126548161311e565b5061265f8382613447565b6001600160a01b0383166000908152600260205260409020556125dd565b906001600160a01b0382168015801592600092916126c19161269e86612240565b84918514612724576125b56126b582600554613128565b9390936125ac8161311e565b9384936126d085600554612af7565b6126d98161311e565b50600555612714575b506126ec8361311e565b507f67500e8d0ed826d2194f514dd0d8124f35648ab6e3fb5e6ed867134cffe661e98280a490565b61271e9084613447565b386126e2565b6125b5612759826127478a60018060a01b03166000526002602052604060002090565b546127548b82151561280f565b6130b1565b9390936127658161311e565b506127708a82613447565b6001600160a01b038a16600090815260026020526040902055612edf565b60ff600154161561279b57565b638dfc202b60e01b60005260046000fd5b605411156127b657565b634e487b7160e01b600052602160045260246000fd5b9060548210156127b65752565b939261280690610b4193606093875260018060a01b0316602087015260806040870152608086019061029c565b930160056127cc565b156128175750565b636b8830d760e11b60009081526001600160a01b0391909116600452602490fd5b9092916001600160a01b0382168015929161287f908415612962578061286361287592600554613128565b92909261286f8161311e565b50600555565b6125b56000612edf565b9485936001600160a01b03821693841591821561290d576128ae6128a588600554612af7565b61286f8161311e565b156128fd575b50156128ed575b506128c58361311e565b507f67500e8d0ed826d2194f514dd0d8124f35648ab6e3fb5e6ed867134cffe661e9600080a4565b6128f79084613447565b386128bb565b6129079086613447565b386128b4565b6001600160a01b0384166000908152600260205260409020612930908890612645565b6129398161311e565b506129448582613447565b6001600160a01b0385166000908152600260205260409020556128ae565b6001600160a01b038416600090815260026020526040902061298d908290546127548782151561280f565b9190916129998161311e565b506129a48682613447565b6001600160a01b038616600090815260026020526040902055612875565b6001600160a01b039182168152911660208201526040810191909152608060608201819052810183905260a09290918190848401376000828201840152601f01601f1916010190565b3d15612a36573d90612a1c82610b5a565b91612a2a6040519384610b0c565b82523d6000602084013e565b606090565b9195949293909290863b15612ae8576020939291612a6e9160405196879586956346083bfd60e01b8752600487016129c2565b038160006001600160a01b0388165af160009181612ac7575b50612ac35782612a95612a0b565b8051919082612abc57636e41946d60e11b6000526001600160a01b03821660045260246000fd5b9050602001fd5b9150565b612ae191925060203d602011610a7857610a6a8183610b0c565b9038612a87565b505050505090506102ee613235565b6000602091612b66938115612ba3575b8015612b95575b6000805160206134e4833981519152546040516303056db360e31b8152600481019390935260248301919091526001600160f81b031983166044830152909384926001600160a01b0390921691839182906064820190565b03925af19081156107d857600091612b7c575090565b6102ee915060203d602011610a7857610a6a8183610b0c565b50612b9e612e82565b612b0e565b9050612bad612e82565b90612b07565b9081602091031261029757516102ee816108cf565b6000805160206134a4833981519152546040516382027b6d60e01b815260048101929092526001600160a01b039283166024830152909160209183916044918391165afa9081156107d857600091612c1e575090565b6102ee915060203d602011612c40575b612c388183610b0c565b810190612bb3565b503d612c2e565b90612c5182610b5a565b612c5e6040519182610b0c565b8281528092612c6f601f1991610b5a565b0190602036910137565b906020808351928381520192019060005b818110612c975750505090565b8251845260209384019390920191600101612c8a565b91612cc3612cd192606085526060850190612c79565b90838203602085015261029c565b906040818303910152815180825260208201916020808360051b8301019401926000915b838310612d0457505050505090565b9091929394602080612d22600193601f19868203018752895161029c565b97019301930191939290612cf5565b80516000906000905b808210612dd057505091602091612d53612dba946132d2565b612d5c81612c47565b906024858301377fed8d60e34876f751cc8b014c560745351147d9de11b9347c854e881b128ea60254600090612d9c9061127e906001600160a01b031681565b9260405196879586948593632c027b1360e21b855260048501612cad565b03925af19081156107d857600091612c1e575090565b90916009612dfd612de185876120ea565b51601e1a612dee816127ac565b612df7816127ac565b60ff1690565b1015612e1657612e0e6001916132d2565b920190612d3a565b63ce54a8d160e01b60005260046000fd5b906000602091828151910182855af115611c97576000513d612e7957506001600160a01b0381163b155b612e585750565b635274afe760e01b60009081526001600160a01b0391909116600452602490fd5b60011415612e51565b6000805160206134e483398151915254604051639cd07acb60e01b81526000600482018190529091602091839160449183916001600160a01b0316612ecb6024840160056127cc565b5af19081156107d857600091612b7c575090565b6000805160206134e483398151915254604051639cd07acb60e01b81526004810192909252602090829060449082906000906001600160a01b0316612ecb6024840160056127cc565b9060206102ee928181520190612c79565b91612f57906040929594958452606060208501526060840190612c79565b6001600160e01b0319909416910152565b6000198114610f505760010190565b6000805160206134c4833981519152546000805160206134a48339815191525490929190612faf9061127e906001600160a01b031681565b803b156102975760006040518092637d6e912360e11b8252818381612fd78860048301612f28565b03925af180156107d85761309c575b507f5ea69329017273582817d320489fbd94f775580e90c092699ca6f3d12fdf7d005461301d9061127e906001600160a01b031681565b90813b1561029757604051633263b83b60e01b8152916000908390818381613051631cf773ed60e21b888c60048501612f39565b03925af19182156107d85761306c92613087575b50836132e0565b610b416115636000805160206134c483398151915254612f68565b80611597600061309693610b0c565b38613065565b8061159760006130ab93610b0c565b38612fe6565b91909160206130ca6130c385846133ba565b9483612af7565b91606460018060a01b036000805160206134e483398151915254169360006040519586948593637702dcff60e01b85528a6004860152602485015260448401525af19081156107d857600091612b7c575090565b6102ee3082613447565b9091908061313d5750613139613235565b9190565b9161314890836131a8565b602061315484836133ba565b93606460018060a01b036000805160206134e483398151915254169360006040519586948593637702dcff60e01b85528a6004860152602485015260448401525af19081156107d857600091612b7c575090565b6000602091612b66938115613225575b8015613217575b6000805160206134e48339815191525460405163022f65e760e31b8152600481019390935260248301919091526001600160f81b031983166044830152909384926001600160a01b0390921691839182906064820190565b50613220612e82565b6131bf565b905061322f612e82565b906131b8565b6000805160206134e483398151915254604051639cd07acb60e01b81526001600482015290602090829060449082906000906001600160a01b0316612ecb60248401836127cc565b906064602092600060018060a01b036000805160206134e483398151915254166040519687958694637702dcff60e01b86526004860152602485015260448401525af19081156107d857600091612b7c575090565b9060208201809211610f5057565b806000526000805160206135048339815191526020526040600020546133a95760005260008051602061350483398151915260205260406000208151916001600160401b038311610b2d57680100000000000000008311610b2d578154838355808410613380575b50602061335c910191600052602060002090565b60005b83811061336c5750505050565b60019060208451940193818401550161335f565b8260005283602060002091820191015b81811061339d5750613348565b60008155600101613390565b633f06d22b60e01b60005260046000fd5b6000602091612b66938115613437575b8015613429575b6000805160206134e483398151915254604051631391547f60e01b8152600481019390935260248301919091526001600160f81b031983166044830152909384926001600160a01b0390921691839182906064820190565b50613432612e82565b6133d1565b9050613441612e82565b906133ca565b6000805160206134a483398151915254600092916001600160a01b0390911690813b156107e057604051635ca4b5b160e11b815260048101919091526001600160a01b0390921660248301528290829081838160448101611bfe56feed8d60e34876f751cc8b014c560745351147d9de11b9347c854e881b128ea6005ea69329017273582817d320489fbd94f775580e90c092699ca6f3d12fdf7d01ed8d60e34876f751cc8b014c560745351147d9de11b9347c854e881b128ea6015ea69329017273582817d320489fbd94f775580e90c092699ca6f3d12fdf7d02a2646970667358221220e9051736d7d7317db114727ea8ee5f88d005e793aa4e3b8ae622006ec86adc7564736f6c634300081c0033",
  "linkReferences": {},
  "deployedLinkReferences": {}
}