{
  "_format": "hh-sol-artifact-1",
  "contractName": "AscendaSyntheticAsset",
  "sourceName": "contracts/AscendaSyntheticAsset.sol",
  "abi": [
    {
      "inputs": [
        {
          "internalType": "string",
          "name": "underlyingAsset_",
          "type": "string"
        },
        {
          "internalType": "string",
          "name": "name_",
          "type": "string"
        },
        {
          "internalType": "string",
          "name": "symbol_",
          "type": "string"
        },
        {
          "internalType": "string",
          "name": "tokenURI_",
          "type": "string"
        },
        {
          "internalType": "address",
          "name": "oracle_",
          "type": "address"
        },
        {
          "internalType": "uint256",
          "name": "collateralizationRatio_",
          "type": "uint256"
        }
      ],
      "stateMutability": "nonpayable",
      "type": "constructor"
    },
    {
      "inputs": [
        {
          "internalType": "uint256",
          "name": "requestId",
          "type": "uint256"
        }
      ],
      "name": "ConfidentialFungibleTokenInvalidGatewayRequest",
      "type": "error"
    },
    {
      "inputs": [
        {
          "internalType": "address",
          "name": "receiver",
          "type": "address"
        }
      ],
      "name": "ConfidentialFungibleTokenInvalidReceiver",
      "type": "error"
    },
    {
      "inputs": [
        {
          "internalType": "address",
          "name": "sender",
          "type": "address"
        }
      ],
      "name": "ConfidentialFungibleTokenInvalidSender",
      "type": "error"
    },
    {
      "inputs": [
        {
          "internalType": "address",
          "name": "caller",
          "type": "address"
        }
      ],
      "name": "ConfidentialFungibleTokenUnauthorizedCaller",
      "type": "error"
    },
    {
      "inputs": [
        {
          "internalType": "address",
          "name": "holder",
          "type": "address"
        },
        {
          "internalType": "address",
          "name": "spender",
          "type": "address"
        }
      ],
      "name": "ConfidentialFungibleTokenUnauthorizedSpender",
      "type": "error"
    },
    {
      "inputs": [
        {
          "internalType": "euint64",
          "name": "amount",
          "type": "bytes32"
        },
        {
          "internalType": "address",
          "name": "user",
          "type": "address"
        }
      ],
      "name": "ConfidentialFungibleTokenUnauthorizedUseOfEncryptedAmount",
      "type": "error"
    },
    {
      "inputs": [
        {
          "internalType": "address",
          "name": "holder",
          "type": "address"
        }
      ],
      "name": "ConfidentialFungibleTokenZeroBalance",
      "type": "error"
    },
    {
      "inputs": [],
      "name": "EnforcedPause",
      "type": "error"
    },
    {
      "inputs": [],
      "name": "ExpectedPause",
      "type": "error"
    },
    {
      "inputs": [],
      "name": "HandlesAlreadySavedForRequestID",
      "type": "error"
    },
    {
      "inputs": [],
      "name": "InsufficientCollateral",
      "type": "error"
    },
    {
      "inputs": [],
      "name": "InvalidAddress",
      "type": "error"
    },
    {
      "inputs": [],
      "name": "InvalidCollateralizationRatio",
      "type": "error"
    },
    {
      "inputs": [],
      "name": "InvalidKMSSignatures",
      "type": "error"
    },
    {
      "inputs": [],
      "name": "InvalidPriceData",
      "type": "error"
    },
    {
      "inputs": [],
      "name": "NoHandleFoundForRequestID",
      "type": "error"
    },
    {
      "inputs": [],
      "name": "NotAuthorizedMinter",
      "type": "error"
    },
    {
      "inputs": [
        {
          "internalType": "address",
          "name": "owner",
          "type": "address"
        }
      ],
      "name": "OwnableInvalidOwner",
      "type": "error"
    },
    {
      "inputs": [
        {
          "internalType": "address",
          "name": "account",
          "type": "address"
        }
      ],
      "name": "OwnableUnauthorizedAccount",
      "type": "error"
    },
    {
      "inputs": [],
      "name": "PriceTooOld",
      "type": "error"
    },
    {
      "inputs": [],
      "name": "ReentrancyGuardReentrantCall",
      "type": "error"
    },
    {
      "inputs": [
        {
          "internalType": "uint8",
          "name": "bits",
          "type": "uint8"
        },
        {
          "internalType": "uint256",
          "name": "value",
          "type": "uint256"
        }
      ],
      "name": "SafeCastOverflowedUintDowncast",
      "type": "error"
    },
    {
      "inputs": [],
      "name": "UnsupportedHandleType",
      "type": "error"
    },
    {
      "anonymous": false,
      "inputs": [
        {
          "indexed": true,
          "internalType": "euint64",
          "name": "encryptedAmount",
          "type": "bytes32"
        },
        {
          "indexed": false,
          "internalType": "uint64",
          "name": "amount",
          "type": "uint64"
        }
      ],
      "name": "AmountDisclosed",
      "type": "event"
    },
    {
      "anonymous": false,
      "inputs": [
        {
          "indexed": true,
          "internalType": "address",
          "name": "minter",
          "type": "address"
        },
        {
          "indexed": false,
          "internalType": "bool",
          "name": "authorized",
          "type": "bool"
        }
      ],
      "name": "AuthorizedMinterSet",
      "type": "event"
    },
    {
      "anonymous": false,
      "inputs": [
        {
          "indexed": false,
          "internalType": "uint256",
          "name": "newRatio",
          "type": "uint256"
        }
      ],
      "name": "CollateralizationUpdated",
      "type": "event"
    },
    {
      "anonymous": false,
      "inputs": [
        {
          "indexed": true,
          "internalType": "address",
          "name": "from",
          "type": "address"
        },
        {
          "indexed": true,
          "internalType": "address",
          "name": "to",
          "type": "address"
        },
        {
          "indexed": true,
          "internalType": "euint64",
          "name": "amount",
          "type": "bytes32"
        }
      ],
      "name": "ConfidentialTransfer",
      "type": "event"
    },
    {
      "anonymous": false,
      "inputs": [
        {
          "indexed": true,
          "internalType": "uint256",
          "name": "requestID",
          "type": "uint256"
        }
      ],
      "name": "DecryptionFulfilled",
      "type": "event"
    },
    {
      "anonymous": false,
      "inputs": [
        {
          "indexed": true,
          "internalType": "address",
          "name": "holder",
          "type": "address"
        },
        {
          "indexed": true,
          "internalType": "address",
          "name": "operator",
          "type": "address"
        },
        {
          "indexed": false,
          "internalType": "uint48",
          "name": "until",
          "type": "uint48"
        }
      ],
      "name": "OperatorSet",
      "type": "event"
    },
    {
      "anonymous": false,
      "inputs": [
        {
          "indexed": true,
          "internalType": "address",
          "name": "previousOwner",
          "type": "address"
        },
        {
          "indexed": true,
          "internalType": "address",
          "name": "newOwner",
          "type": "address"
        }
      ],
      "name": "OwnershipTransferred",
      "type": "event"
    },
    {
      "anonymous": false,
      "inputs": [
        {
          "indexed": false,
          "internalType": "address",
          "name": "account",
          "type": "address"
        }
      ],
      "name": "Paused",
      "type": "event"
    },
    {
      "anonymous": false,
      "inputs": [
        {
          "indexed": true,
          "internalType": "address",
          "name": "from",
          "type": "address"
        },
        {
          "indexed": false,
          "internalType": "euint64",
          "name": "amount",
          "type": "bytes32"
        },
        {
          "indexed": false,
          "internalType": "euint64",
          "name": "collateral",
          "type": "bytes32"
        },
        {
          "indexed": false,
          "internalType": "uint256",
          "name": "price",
          "type": "uint256"
        }
      ],
      "name": "SyntheticBurned",
      "type": "event"
    },
    {
      "anonymous": false,
      "inputs": [
        {
          "indexed": true,
          "internalType": "address",
          "name": "to",
          "type": "address"
        },
        {
          "indexed": false,
          "internalType": "euint64",
          "name": "amount",
          "type": "bytes32"
        },
        {
          "indexed": false,
          "internalType": "euint64",
          "name": "collateral",
          "type": "bytes32"
        },
        {
          "indexed": false,
          "internalType": "uint256",
          "name": "price",
          "type": "uint256"
        }
      ],
      "name": "SyntheticMinted",
      "type": "event"
    },
    {
      "anonymous": false,
      "inputs": [
        {
          "indexed": false,
          "internalType": "address",
          "name": "account",
          "type": "address"
        }
      ],
      "name": "Unpaused",
      "type": "event"
    },
    {
      "inputs": [],
      "name": "MAX_COLLATERAL_RATIO",
      "outputs": [
        {
          "internalType": "uint256",
          "name": "",
          "type": "uint256"
        }
      ],
      "stateMutability": "view",
      "type": "function"
    },
    {
      "inputs": [],
      "name": "MIN_COLLATERAL_RATIO",
      "outputs": [
        {
          "internalType": "uint256",
          "name": "",
          "type": "uint256"
        }
      ],
      "stateMutability": "view",
      "type": "function"
    },
    {
      "inputs": [
        {
          "internalType": "address",
          "name": "",
          "type": "address"
        }
      ],
      "name": "authorizedMinters",
      "outputs": [
        {
          "internalType": "bool",
          "name": "",
          "type": "bool"
        }
      ],
      "stateMutability": "view",
      "type": "function"
    },
    {
      "inputs": [
        {
          "internalType": "address",
          "name": "from",
          "type": "address"
        },
        {
          "internalType": "euint64",
          "name": "syntheticAmount",
          "type": "bytes32"
        }
      ],
      "name": "burnSynthetic",
      "outputs": [
        {
          "internalType": "euint64",
          "name": "collateralReleased",
          "type": "bytes32"
        }
      ],
      "stateMutability": "nonpayable",
      "type": "function"
    },
    {
      "inputs": [],
      "name": "collateralizationRatio",
      "outputs": [
        {
          "internalType": "uint256",
          "name": "",
          "type": "uint256"
        }
      ],
      "stateMutability": "view",
      "type": "function"
    },
    {
      "inputs": [
        {
          "internalType": "address",
          "name": "account",
          "type": "address"
        }
      ],
      "name": "confidentialBalanceOf",
      "outputs": [
        {
          "internalType": "euint64",
          "name": "",
          "type": "bytes32"
        }
      ],
      "stateMutability": "view",
      "type": "function"
    },
    {
      "inputs": [],
      "name": "confidentialTotalSupply",
      "outputs": [
        {
          "internalType": "euint64",
          "name": "",
          "type": "bytes32"
        }
      ],
      "stateMutability": "view",
      "type": "function"
    },
    {
      "inputs": [
        {
          "internalType": "address",
          "name": "to",
          "type": "address"
        },
        {
          "internalType": "externalEuint64",
          "name": "encryptedAmount",
          "type": "bytes32"
        },
        {
          "internalType": "bytes",
          "name": "inputProof",
          "type": "bytes"
        }
      ],
      "name": "confidentialTransfer",
      "outputs": [
        {
          "internalType": "euint64",
          "name": "",
          "type": "bytes32"
        }
      ],
      "stateMutability": "nonpayable",
      "type": "function"
    },
    {
      "inputs": [
        {
          "internalType": "address",
          "name": "to",
          "type": "address"
        },
        {
          "internalType": "euint64",
          "name": "amount",
          "type": "bytes32"
        }
      ],
      "name": "confidentialTransfer",
      "outputs": [
        {
          "internalType": "euint64",
          "name": "",
          "type": "bytes32"
        }
      ],
      "stateMutability": "nonpayable",
      "type": "function"
    },
    {
      "inputs": [
        {
          "internalType": "address",
          "name": "to",
          "type": "address"
        },
        {
          "internalType": "euint64",
          "name": "amount",
          "type": "bytes32"
        },
        {
          "internalType": "bytes",
          "name": "data",
          "type": "bytes"
        }
      ],
      "name": "confidentialTransferAndCall",
      "outputs": [
        {
          "internalType": "euint64",
          "name": "transferred",
          "type": "bytes32"
        }
      ],
      "stateMutability": "nonpayable",
      "type": "function"
    },
    {
      "inputs": [
        {
          "internalType": "address",
          "name": "to",
          "type": "address"
        },
        {
          "internalType": "externalEuint64",
          "name": "encryptedAmount",
          "type": "bytes32"
        },
        {
          "internalType": "bytes",
          "name": "inputProof",
          "type": "bytes"
        },
        {
          "internalType": "bytes",
          "name": "data",
          "type": "bytes"
        }
      ],
      "name": "confidentialTransferAndCall",
      "outputs": [
        {
          "internalType": "euint64",
          "name": "transferred",
          "type": "bytes32"
        }
      ],
      "stateMutability": "nonpayable",
      "type": "function"
    },
    {
      "inputs": [
        {
          "internalType": "address",
          "name": "from",
          "type": "address"
        },
        {
          "internalType": "address",
          "name": "to",
          "type": "address"
        },
        {
          "internalType": "externalEuint64",
          "name": "encryptedAmount",
          "type": "bytes32"
        },
        {
          "internalType": "bytes",
          "name": "inputProof",
          "type": "bytes"
        }
      ],
      "name": "confidentialTransferFrom",
      "outputs": [
        {
          "internalType": "euint64",
          "name": "transferred",
          "type": "bytes32"
        }
      ],
      "stateMutability": "nonpayable",
      "type": "function"
    },
    {
      "inputs": [
        {
          "internalType": "address",
          "name": "from",
          "type": "address"
        },
        {
          "internalType": "address",
          "name": "to",
          "type": "address"
        },
        {
          "internalType": "euint64",
          "name": "amount",
          "type": "bytes32"
        }
      ],
      "name": "confidentialTransferFrom",
      "outputs": [
        {
          "internalType": "euint64",
          "name": "transferred",
          "type": "bytes32"
        }
      ],
      "stateMutability": "nonpayable",
      "type": "function"
    },
    {
      "inputs": [
        {
          "internalType": "address",
          "name": "from",
          "type": "address"
        },
        {
          "internalType": "address",
          "name": "to",
          "type": "address"
        },
        {
          "internalType": "externalEuint64",
          "name": "encryptedAmount",
          "type": "bytes32"
        },
        {
          "internalType": "bytes",
          "name": "inputProof",
          "type": "bytes"
        },
        {
          "internalType": "bytes",
          "name": "data",
          "type": "bytes"
        }
      ],
      "name": "confidentialTransferFromAndCall",
      "outputs": [
        {
          "internalType": "euint64",
          "name": "transferred",
          "type": "bytes32"
        }
      ],
      "stateMutability": "nonpayable",
      "type": "function"
    },
    {
      "inputs": [
        {
          "internalType": "address",
          "name": "from",
          "type": "address"
        },
        {
          "internalType": "address",
          "name": "to",
          "type": "address"
        },
        {
          "internalType": "euint64",
          "name": "amount",
          "type": "bytes32"
        },
        {
          "internalType": "bytes",
          "name": "data",
          "type": "bytes"
        }
      ],
      "name": "confidentialTransferFromAndCall",
      "outputs": [
        {
          "internalType": "euint64",
          "name": "transferred",
          "type": "bytes32"
        }
      ],
      "stateMutability": "nonpayable",
      "type": "function"
    },
    {
      "inputs": [],
      "name": "decimals",
      "outputs": [
        {
          "internalType": "uint8",
          "name": "",
          "type": "uint8"
        }
      ],
      "stateMutability": "view",
      "type": "function"
    },
    {
      "inputs": [
        {
          "internalType": "euint64",
          "name": "encryptedAmount",
          "type": "bytes32"
        }
      ],
      "name": "discloseEncryptedAmount",
      "outputs": [],
      "stateMutability": "nonpayable",
      "type": "function"
    },
    {
      "inputs": [
        {
          "internalType": "uint256",
          "name": "requestId",
          "type": "uint256"
        },
        {
          "internalType": "uint64",
          "name": "result",
          "type": "uint64"
        },
        {
          "internalType": "bytes[]",
          "name": "signatures",
          "type": "bytes[]"
        }
      ],
      "name": "finalizeCollateralValidation",
      "outputs": [],
      "stateMutability": "nonpayable",
      "type": "function"
    },
    {
      "inputs": [
        {
          "internalType": "uint256",
          "name": "requestId",
          "type": "uint256"
        },
        {
          "internalType": "uint64",
          "name": "amount",
          "type": "uint64"
        },
        {
          "internalType": "bytes[]",
          "name": "signatures",
          "type": "bytes[]"
        }
      ],
      "name": "finalizeDiscloseEncryptedAmount",
      "outputs": [],
      "stateMutability": "nonpayable",
      "type": "function"
    },
    {
      "inputs": [],
      "name": "getCurrentPrice",
      "outputs": [
        {
          "internalType": "uint256",
          "name": "price",
          "type": "uint256"
        },
        {
          "internalType": "uint256",
          "name": "timestamp",
          "type": "uint256"
        }
      ],
      "stateMutability": "view",
      "type": "function"
    },
    {
      "inputs": [
        {
          "internalType": "address",
          "name": "user",
          "type": "address"
        }
      ],
      "name": "getUserPosition",
      "outputs": [
        {
          "internalType": "euint64",
          "name": "syntheticBalance",
          "type": "bytes32"
        },
        {
          "internalType": "euint64",
          "name": "collateralLocked",
          "type": "bytes32"
        },
        {
          "internalType": "uint256",
          "name": "lastUpdate",
          "type": "uint256"
        }
      ],
      "stateMutability": "view",
      "type": "function"
    },
    {
      "inputs": [
        {
          "internalType": "address",
          "name": "holder",
          "type": "address"
        },
        {
          "internalType": "address",
          "name": "spender",
          "type": "address"
        }
      ],
      "name": "isOperator",
      "outputs": [
        {
          "internalType": "bool",
          "name": "",
          "type": "bool"
        }
      ],
      "stateMutability": "view",
      "type": "function"
    },
    {
      "inputs": [],
      "name": "maxPriceAge",
      "outputs": [
        {
          "internalType": "uint256",
          "name": "",
          "type": "uint256"
        }
      ],
      "stateMutability": "view",
      "type": "function"
    },
    {
      "inputs": [
        {
          "internalType": "address",
          "name": "to",
          "type": "address"
        },
        {
          "internalType": "euint64",
          "name": "syntheticAmount",
          "type": "bytes32"
        },
        {
          "internalType": "euint64",
          "name": "collateralAmount",
          "type": "bytes32"
        }
      ],
      "name": "mintSynthetic",
      "outputs": [
        {
          "internalType": "euint64",
          "name": "minted",
          "type": "bytes32"
        }
      ],
      "stateMutability": "nonpayable",
      "type": "function"
    },
    {
      "inputs": [],
      "name": "name",
      "outputs": [
        {
          "internalType": "string",
          "name": "",
          "type": "string"
        }
      ],
      "stateMutability": "view",
      "type": "function"
    },
    {
      "inputs": [],
      "name": "oracle",
      "outputs": [
        {
          "internalType": "contract IAscendaOracle",
          "name": "",
          "type": "address"
        }
      ],
      "stateMutability": "view",
      "type": "function"
    },
    {
      "inputs": [],
      "name": "owner",
      "outputs": [
        {
          "internalType": "address",
          "name": "",
          "type": "address"
        }
      ],
      "stateMutability": "view",
      "type": "function"
    },
    {
      "inputs": [],
      "name": "pause",
      "outputs": [],
      "stateMutability": "nonpayable",
      "type": "function"
    },
    {
      "inputs": [],
      "name": "paused",
      "outputs": [
        {
          "internalType": "bool",
          "name": "",
          "type": "bool"
        }
      ],
      "stateMutability": "view",
      "type": "function"
    },
    {
      "inputs": [],
      "name": "renounceOwnership",
      "outputs": [],
      "stateMutability": "nonpayable",
      "type": "function"
    },
    {
      "inputs": [
        {
          "internalType": "address",
          "name": "minter",
          "type": "address"
        },
        {
          "internalType": "bool",
          "name": "authorized",
          "type": "bool"
        }
      ],
      "name": "setAuthorizedMinter",
      "outputs": [],
      "stateMutability": "nonpayable",
      "type": "function"
    },
    {
      "inputs": [
        {
          "internalType": "uint256",
          "name": "newRatio",
          "type": "uint256"
        }
      ],
      "name": "setCollateralizationRatio",
      "outputs": [],
      "stateMutability": "nonpayable",
      "type": "function"
    },
    {
      "inputs": [
        {
          "internalType": "uint256",
          "name": "newMaxAge",
          "type": "uint256"
        }
      ],
      "name": "setMaxPriceAge",
      "outputs": [],
      "stateMutability": "nonpayable",
      "type": "function"
    },
    {
      "inputs": [
        {
          "internalType": "address",
          "name": "operator",
          "type": "address"
        },
        {
          "internalType": "uint48",
          "name": "until",
          "type": "uint48"
        }
      ],
      "name": "setOperator",
      "outputs": [],
      "stateMutability": "nonpayable",
      "type": "function"
    },
    {
      "inputs": [],
      "name": "symbol",
      "outputs": [
        {
          "internalType": "string",
          "name": "",
          "type": "string"
        }
      ],
      "stateMutability": "view",
      "type": "function"
    },
    {
      "inputs": [],
      "name": "tokenURI",
      "outputs": [
        {
          "internalType": "string",
          "name": "",
          "type": "string"
        }
      ],
      "stateMutability": "view",
      "type": "function"
    },
    {
      "inputs": [],
      "name": "totalCollateral",
      "outputs": [
        {
          "internalType": "euint64",
          "name": "",
          "type": "bytes32"
        }
      ],
      "stateMutability": "view",
      "type": "function"
    },
    {
      "inputs": [
        {
          "internalType": "address",
          "name": "newOwner",
          "type": "address"
        }
      ],
      "name": "transferOwnership",
      "outputs": [],
      "stateMutability": "nonpayable",
      "type": "function"
    },
    {
      "inputs": [],
      "name": "underlyingAsset",
      "outputs": [
        {
          "internalType": "string",
          "name": "",
          "type": "string"
        }
      ],
      "stateMutability": "view",
      "type": "function"
    },
    {
      "inputs": [],
      "name": "unpause",
      "outputs": [],
      "stateMutability": "nonpayable",
      "type": "function"
    },
    {
      "inputs": [
        {
          "internalType": "address",
          "name": "",
          "type": "address"
        }
      ],
      "name": "userCollateralLocked",
      "outputs": [
        {
          "internalType": "euint64",
          "name": "",
          "type": "bytes32"
        }
      ],
      "stateMutability": "view",
      "type": "function"
    },
    {
      "inputs": [
        {
          "internalType": "address",
          "name": "",
          "type": "address"
        }
      ],
      "name": "userLastUpdate",
      "outputs": [
        {
          "internalType": "uint256",
          "name": "",
          "type": "uint256"
        }
      ],
      "stateMutability": "view",
      "type": "function"
    },
    {
      "inputs": [
        {
          "internalType": "address",
          "name": "",
          "type": "address"
        }
      ],
      "name": "userSyntheticBalances",
      "outputs": [
        {
          "internalType": "euint64",
          "name": "",
          "type": "bytes32"
        }
      ],
      "stateMutability": "view",
      "type": "function"
    }
  ],
  "bytecode": "0x60a0806040523461086f576000613ce7803803809161001e8286610874565b8439820160c08382031261086b5782516001600160401b03811161086757816100489185016108ad565b60208401519093906001600160401b038111610863578261006a9183016108ad565b60408201519092906001600160401b03811161085f578161008c9184016108ad565b60608301519091906001600160401b03811161085b57906100ae9184016108ad565b60808301516001600160a01b038116939192919084900361085b5760a00151845190946001600160401b03821161084757600454600181811c9116801561083d575b6020821014610829579081601f8493116107bb575b50602090601f831160011461075657889261074b575b50508160011b916000199060031b1c1916176004555b8051906001600160401b03821161073757600554600181811c9116801561072d575b6020821014610719579081601f8493116106c8575b50602090601f8311600114610663578792610658575b50508160011b916000199060031b1c1916176005555b8051906001600160401b03821161064457600654600181811c9116801561063a575b6020821014610626579081601f8493116105b8575b50602090601f8311600114610553578692610548575b50508160011b916000199060031b1c1916176006555b33156105345760078054336001600160a01b0319821681179092556001600160a01b03167f8be0079c531659141344cd1fd0a4f28419497f9722a3daafe3b4186f6b6457e08580a36001600855610e10601055801561052557606e8210801561051a575b61050b5783516001600160401b0381116104f757600954600181811c911680156104ed575b60208210146104d957601f8111610476575b50602094601f8211600114610412579484958293949592610407575b50508160011b916000199060031b1c1916176009555b608052600b557fed8d60e34876f751cc8b014c560745351147d9de11b9347c854e881b128ea60154604051639cd07acb60e01b8152600481018390526005602482015282916020908290604490829086906001600160a01b03165af19081156103c35782916103d2575b50600c8190557fed8d60e34876f751cc8b014c560745351147d9de11b9347c854e881b128ea600546001600160a01b0316803b156103ce57604483926040519485938492635ca4b5b160e11b845260048401523060248401525af180156103c3576103b3575b6040516133ca908161091d82396080518181816110830152611e310152f35b816103bd91610874565b38610394565b6040513d84823e3d90fd5b5050fd5b90506020813d6020116103ff575b816103ed60209383610874565b810103126103fc57513861032e565b50fd5b3d91506103e0565b0151905038806102ae565b601f198216956009865280862091865b88811061045e57508360019596979810610445575b505050811b016009556102c4565b015160001960f88460031b161c19169055388080610437565b91926020600181928685015181550194019201610422565b600985527f6e1540171b6c0c960b71a7020d9f60077f6af931a8bbf590da0223dacf75c7af601f830160051c810191602084106104cf575b601f0160051c01905b8181106104c45750610292565b8581556001016104b7565b90915081906104ae565b634e487b7160e01b85526022600452602485fd5b90607f1690610280565b634e487b7160e01b84526041600452602484fd5b631df3c65960e11b8352600483fd5b506101f4821161025b565b63e6c4247b60e01b8352600483fd5b631e4fbdf760e01b83526004839052602483fd5b0151905038806101e1565b600687528187209250601f198416875b8181106105a05750908460019594939210610587575b505050811b016006556101f7565b015160001960f88460031b161c19169055388080610579565b92936020600181928786015181550195019301610563565b600687529091507ff652222313e28459528d920b65115c16c04f3efc82aaedc97be59f3f377c0d3f601f840160051c8101916020851061061c575b90601f859493920160051c01905b81811061060e57506101cb565b878155849350600101610601565b90915081906105f3565b634e487b7160e01b86526022600452602486fd5b90607f16906101b6565b634e487b7160e01b85526041600452602485fd5b01519050388061017e565b600588528188209250601f198416885b8181106106b05750908460019594939210610697575b505050811b01600555610194565b015160001960f88460031b161c19169055388080610689565b92936020600181928786015181550195019301610673565b9091506005875260208720601f840160051c8101916020851061070f575b90601f859493920160051c01905b8181106107015750610168565b8881558493506001016106f4565b90915081906106e6565b634e487b7160e01b87526022600452602487fd5b90607f1690610153565b634e487b7160e01b86526041600452602486fd5b01519050388061011b565b600489528189209250601f198416895b8181106107a3575090846001959493921061078a575b505050811b01600455610131565b015160001960f88460031b161c1916905538808061077c565b92936020600181928786015181550195019301610766565b600489529091507f8a35acfbc15ff81a39ae7d344fd709f28e8600b4aa8c65c6b64bfe7fe36bd19b601f840160051c8101916020851061081f575b90601f859493920160051c01905b8181106108115750610105565b898155849350600101610804565b90915081906107f6565b634e487b7160e01b88526022600452602488fd5b90607f16906100f0565b634e487b7160e01b87526041600452602487fd5b8580fd5b8480fd5b8380fd5b8280fd5b5080fd5b600080fd5b601f909101601f19168101906001600160401b0382119082101761089757604052565b634e487b7160e01b600052604160045260246000fd5b81601f8201121561086f578051906001600160401b03821161089757604051926108e1601f8401601f191660200185610874565b8284526020838301011161086f5760005b82811061090757505060206000918301015290565b806020809284010151828287010152016108f256fe6080604052600436101561001257600080fd5b60003560e01c806306fdde03146102c75780631584410a146102c25780631f0a090a146102bd5780632fb74e62146102b8578063313ce567146102b3578063344ff101146102ae57806334c45743146102a95780633c130d90146102a45780633cfb3f731461029f5780633f4ba83a1461029a5780634ac8eb5f14610295578063537d3c5014610290578063540952271461028b57806356447ce8146102865780635b7c2dad146102815780635bebed7e1461027c5780635c975abb14610277578063705d6b3514610272578063715018a61461026d5780637158da7c146102685780637279e264146102635780637a9fffb71461025e5780637dc0d1d0146102595780638456cb59146102545780638cffe60e1461024f5780638da5cb5b1461024a57806393869fd31461024557806395d89b41146102405780639a645d2e1461023b578063aa2fe91b14610236578063b6363cf214610231578063c535803c1461022c578063c7b8a75e14610227578063d1bf1a3814610222578063d4febb961461021d578063dcaf9c4414610218578063de64211914610213578063e064b9bb1461020e578063e5829d2014610209578063eb3155b514610204578063eb91d37e146101ff578063ed58bad8146101fa5763f2fde38b146101f557600080fd5b611aa3565b611a1a565b6119e9565b61199c565b611925565b6118bf565b611841565b611823565b61178a565b611569565b6114fa565b611339565b611303565b6112c4565b61128a565b6111e2565b611177565b61114e565b611114565b6110b2565b61106d565b611051565b610f8c565b610dea565b610d17565b610cfa565b610cd4565b610c9d565b610c44565b610bcb565b610bad565b610b4b565b610b2d565b610abc565b610a82565b6109da565b6108c5565b61088b565b61086f565b61080b565b610458565b61040e565b610331565b60009103126102d757565b600080fd5b919082519283825260005b848110610308575050826000602080949584010152601f8019910116010190565b806020809284010151828286010152016102e7565b90602061032e9281815201906102dc565b90565b346102d75760003660031901126102d757604051600060045461035381610d74565b80845290600181169081156103ea575060011461038b575b6103878361037b81850382610dc4565b6040519182918261031d565b0390f35b600460009081527f8a35acfbc15ff81a39ae7d344fd709f28e8600b4aa8c65c6b64bfe7fe36bd19b939250905b8082106103d05750909150810160200161037b61036b565b9192600181602092548385880101520191019092916103b8565b60ff191660208086019190915291151560051b8401909101915061037b905061036b565b346102d75760003660031901126102d7576020601054604051908152f35b600435906001600160a01b03821682036102d757565b602435906001600160a01b03821682036102d757565b346102d75760603660031901126102d75761047161042c565b6024356044359033600052600a60205260ff6040600020541615806107c9575b6107b85761049d611ef4565b6104a5611f14565b6001600160a01b0383169081156107a757610599906104c2611e0f565b5090602060006104eb6104e56001600160401b036104df876125b2565b16612edd565b846125f9565b61051c6104ff6104f9612f3a565b8a6125f9565b916105166001600160401b036104df600b546125b2565b906125f9565b8115610797575b8015610789575b60008051602061335583398151915254839061055c90610550906001600160a01b031681565b6001600160a01b031690565b604051637210768160e01b8152600481019490945260248401929092526001600160f81b0319909316604483015290958692839182906064820190565b03925af1908115610784576103879661062961071c937f01fb326182aa79196a168c902ae3c603943549d5d37b4ff2d7fed5119e4ca4e496600091610755575b506105e2611c88565b906105ec82611cc0565b5261060a6105fa3392612d16565b6000526011602052604060002090565b80546001600160a01b0319166001600160a01b03909216919091179055565b6001600160a01b0381166000908152600d6020526040902061064e9083905b54611f36565b6001600160a01b0382166000908152600d6020908152604080832093909355600e90522061067d908890610648565b6001600160a01b0382166000908152600e60205260409020556001600160a01b0381166000908152600f602052604090204290556106c56106c088600c54611f36565b600c55565b6106d0600c54611ff2565b506001600160a01b0381166000908152600d602052604090206106f4905b54611ff2565b506001600160a01b0381166000908152600e60205260409020610716906106ee565b50612019565b6040805182815260208101969096528501919091529280606081015b0390a26107456001600855565b6040519081529081906020820190565b610777915060203d60201161077d575b61076f8183610dc4565b810190612686565b386105d9565b503d610765565b611ddb565b50610792612f83565b61052a565b90506107a1612f83565b90610523565b63e6c4247b60e01b60005260046000fd5b63019a5d1d60e71b60005260046000fd5b506007546001600160a01b0316331415610491565b9181601f840112156102d7578235916001600160401b0383116102d757602083818601950101116102d757565b346102d75760603660031901126102d75761082461042c565b602435604435916001600160401b0383116102d7576108606108679261085a61085360209636906004016107de565b3691610eda565b9061211c565b903361222b565b604051908152f35b346102d75760003660031901126102d757602060405160068152f35b346102d75760203660031901126102d7576001600160a01b036108ac61042c565b1660005260006020526020604060002054604051908152f35b346102d757600060a03660031901126109cf576108e061042c565b6108e8610442565b604435916064356001600160401b0381116109d65761090b9036906004016107de565b9190926084356001600160401b0381116109d2576109549561085a61093761094e9336906004016107de565b97909661085333886109493382611c38565b611b2d565b9161225e565b600080516020613315833981519152546001600160a01b031691823b156109cf57604051630f8e573b60e21b8152600481018390523360248201529281908490604490829084905af192831561078457610387936109bf575b50506040519081529081906020820190565b816109c991610dc4565b386109ad565b80fd5b8680fd5b8480fd5b346102d75760003660031901126102d75760405160006006546109fc81610d74565b80845290600181169081156103ea5750600114610a23576103878361037b81850382610dc4565b600660009081527ff652222313e28459528d920b65115c16c04f3efc82aaedc97be59f3f377c0d3f939250905b808210610a685750909150810160200161037b61036b565b919260018160209254838588010152019101909291610a50565b346102d75760203660031901126102d7576001600160a01b03610aa361042c565b16600052600f6020526020604060002054604051908152f35b346102d75760003660031901126102d757610ad561230d565b60075460ff8160a01c1615610b1c5760ff60a01b19166007556040513381527f5db9ee0a495bf2e6ff9c91a7834c1ba4fdd244a5e8aa4e537bd38aeae4b073aa90602090a1005b638dfc202b60e01b60005260046000fd5b346102d75760003660031901126102d7576020600c54604051908152f35b346102d757600060603660031901126109cf57610b6661042c565b602435604435916001600160401b038311610ba957610b8c6109549336906004016107de565b929091610ba33383610b9e3382612a68565b611b5b565b3361225e565b8380fd5b346102d75760003660031901126102d7576020600354604051908152f35b346102d75760203660031901126102d757600435610be761230d565b80151580610c37575b15610bfa57601055005b60405162461bcd60e51b8152602060048201526015602482015274496e76616c6964206d61782070726963652061676560581b6044820152606490fd5b5062015180811115610bf0565b346102d75760203660031901126102d7576001600160a01b03610c6561042c565b166000908152600d6020908152604080832054600e835281842054600f84529382902054825191825292810193909352820152606090f35b346102d75760403660031901126102d7576020610867610cbb61042c565b60243590610cce3383610b9e3382612a68565b3361222b565b346102d75760003660031901126102d757602060ff60075460a01c166040519015158152f35b346102d75760003660031901126102d75760206040516101f48152f35b346102d75760003660031901126102d757610d3061230d565b600780546001600160a01b031981169091556000906001600160a01b03167f8be0079c531659141344cd1fd0a4f28419497f9722a3daafe3b4186f6b6457e08280a3005b90600182811c92168015610da4575b6020831014610d8e57565b634e487b7160e01b600052602260045260246000fd5b91607f1691610d83565b634e487b7160e01b600052604160045260246000fd5b90601f801991011681019081106001600160401b03821117610de557604052565b610dae565b346102d75760003660031901126102d7576040516000600954610e0c81610d74565b80845290600181169081156103ea5750600114610e33576103878361037b81850382610dc4565b600960009081527f6e1540171b6c0c960b71a7020d9f60077f6af931a8bbf590da0223dacf75c7af939250905b808210610e785750909150810160200161037b61036b565b919260018160209254838588010152019101909291610e60565b602435906001600160401b03821682036102d757565b6001600160401b038111610de55760051b60200190565b6001600160401b038111610de557601f01601f191660200190565b929192610ee682610ebf565b91610ef46040519384610dc4565b8294818452818301116102d7578281602093846000960137010152565b929192610f1d82610ea8565b93610f2b6040519586610dc4565b602085848152019260051b8201918183116102d75780935b838510610f51575050505050565b84356001600160401b0381116102d757820183601f820112156102d757602091610f818583858095359101610eda565b815201940193610f43565b346102d75760603660031901126102d757600435610fa8610e92565b6044356001600160401b0381116102d757366023820112156102d757610fdb610fe1913690602481600401359101610f11565b83612336565b81600052600260205260406000205490811561103c5760207f83bbbc07896439e5d950a6cead04cbc676180af7a61cecf43f5296475057f571916001600160401b0360405191168152a2600090815260026020526040812055005b82630ab5f57d60e01b60005260045260246000fd5b346102d75760003660031901126102d7576020604051606e8152f35b346102d75760003660031901126102d7576040517f00000000000000000000000000000000000000000000000000000000000000006001600160a01b03168152602090f35b346102d75760003660031901126102d7576110cb61230d565b6110d3611ef4565b6007805460ff60a01b1916600160a01b1790556040513381527f62e78cea01bee320cd4e420270b5ea74000d11b0c9f74754ebdbfc544b05a25890602090a1005b346102d75760203660031901126102d7576001600160a01b0361113561042c565b16600052600e6020526020604060002054604051908152f35b346102d75760003660031901126102d7576007546040516001600160a01b039091168152602090f35b346102d75760603660031901126102d757600435611193610e92565b604435916001600160401b0383116102d757366023840112156102d7578260040135916001600160401b0383116102d7573660248460051b860101116102d75760246111e0940191611b83565b005b346102d75760003660031901126102d757604051600060055461120481610d74565b80845290600181169081156103ea575060011461122b576103878361037b81850382610dc4565b600560009081527f036b6384b5eca791c62761152d0c79bb0604c104a5fb6f4eb0703f3154bb3db0939250905b8082106112705750909150810160200161037b61036b565b919260018160209254838588010152019101909291611258565b346102d75760203660031901126102d7576001600160a01b036112ab61042c565b16600052600d6020526020604060002054604051908152f35b346102d75760203660031901126102d7576001600160a01b036112e561042c565b16600052600a602052602060ff604060002054166040519015158152f35b346102d75760403660031901126102d757602061132f61132161042c565b611329610442565b90611c38565b6040519015158152f35b346102d75760203660031901126102d7576004356113573382612a68565b806114e5575b61136990823391611b5b565b611371611c88565b8051156114e05781602082015260008051602061333583398151915254906113b36105506105506000805160206133158339815191525460018060a01b031690565b803b156102d75760006040518092637d6e912360e11b82528183816113db8860048301612cc7565b03925af18015610784576114cb575b507f5ea69329017273582817d320489fbd94f775580e90c092699ca6f3d12fdf7d005461142190610550906001600160a01b031681565b90813b156102d757604051633263b83b60e01b8152916000908390818381611455631c9e789960e21b888b60048501612cd8565b03925af191821561078457611470926114b0575b50826131ad565b61149d61148b60008051602061333583398151915254612d07565b60008051602061333583398151915255565b6000526002602052604060002055600080f35b806114bf60006114c593610dc4565b806102cc565b38611469565b806114bf60006114da93610dc4565b386113ea565b611caa565b506113696114f33083612a68565b905061135d565b346102d757600060803660031901126109cf5761151561042c565b61151d610442565b606435916044356001600160401b0384116109d6576115436109549436906004016107de565b9390926115553384610b9e3382612a68565b61156433826109493382611c38565b61225e565b346102d75760403660031901126102d75761158261042c565b60243533600052600a60205260ff604060002054161580611775575b6107b8576115aa611ef4565b6115b2611f14565b6001600160a01b03821680156107a7577f91bd7eecf2546825d1665787d80717f855a87894991d942918c01e7c1bc2ea7f610387936115ef611e0f565b5083600052600d60205261073861175761166760406000205487600052600e6020528861166161164561163461162b8560406000205495612e50565b94610516612fcc565b6116408d610516612f3a565b612e50565b6116506104e56125e5565b61166161165b6125ef565b856125f9565b9161314a565b96846116908261168a8b9860018060a01b0316600052600d602052604060002090565b54612414565b6001600160a01b0382166000908152600d6020908152604080832093909355600e9052206116bf90879061168a565b6001600160a01b0382166000908152600e60205260409020556001600160a01b0381166000908152600f602052604090204290556117026106c087600c54612414565b61170d600c54611ff2565b506001600160a01b0381166000908152600d6020526040902061172f906106ee565b506001600160a01b0381166000908152600e60205260409020611751906106ee565b506124a1565b91604051938493846040919493926060820195825260208201520152565b506007546001600160a01b031633141561159e565b346102d75760403660031901126102d7576117a361042c565b6024359065ffffffffffff82168092036102d7573360009081526001602090815260408083206001600160a01b03851684529091529020805465ffffffffffff1916831790556040519182526001600160a01b03169033907f921a218a75d18e8ec5704851e6b234a85725b21a2521ce889622c35dedc1fa1290602090a3005b346102d75760003660031901126102d7576020600b54604051908152f35b346102d757600060803660031901126109cf5761185c61042c565b602435906044356001600160401b038111610ba95761187f9036906004016107de565b90916064356001600160401b0381116118bb576109549461085a6118aa6118b49336906004016107de565b9690953691610eda565b903361225e565b8580fd5b346102d757600060803660031901126109cf576118da61042c565b6118e2610442565b90604435916064356001600160401b0381116109d6576109549361085a61191061191f9336906004016107de565b61085333886109493382611c38565b9161222b565b346102d75760203660031901126102d75760043561194161230d565b606e81108015611991575b611980576020817e4c8e8e37fa96dcdec4dfbac5fe2a5b1dca9b883d7c1a4c48b333de947d0df192600b55604051908152a1005b631df3c65960e11b60005260046000fd5b506101f4811161194c565b346102d757600060603660031901126109cf576109546119ba61042c565b6119c2610442565b604435916119d53384610b9e3382612a68565b6119e433826109493382611c38565b61222b565b346102d75760003660031901126102d7576040611a04611e0f565b82519182526020820152f35b801515036102d757565b346102d75760403660031901126102d757611a3361042c565b60243590611a4082611a10565b611a4861230d565b6001600160a01b03169081156107a75760207f17f5b635c984bd6bd0661fd547f6085ef1a0813ef0c42d24b12a06f6824b5e089183600052600a825260406000209015159060ff1981541660ff8316179055604051908152a2005b346102d75760203660031901126102d757611abc61042c565b611ac461230d565b6001600160a01b03168015611b1757600780546001600160a01b0319811683179091556001600160a01b03167f8be0079c531659141344cd1fd0a4f28419497f9722a3daafe3b4186f6b6457e0600080a3005b631e4fbdf760e01b600052600060045260246000fd5b15611b36575050565b631ae7729b60e11b60009081526001600160a01b039182166004529116602452604490fd5b15611b64575050565b63118f6e5360e31b60005260045260018060a01b031660245260446000fd5b92611b949192610fdb913691610f11565b6000828152601160205260409020546001600160a01b031615611bf357611bcd6001600160401b03926000526011602052604060002090565b80546001600160a01b031916905516611be257565b633a23d82560e01b60005260046000fd5b60405162461bcd60e51b815260206004820152601a60248201527f496e76616c69642064656372797074696f6e20726571756573740000000000006044820152606490fd5b6001600160a01b03828116911690811491908215611c5557505090565b60009081526001602090815260408083206001600160a01b0390941683529290522065ffffffffffff9150541642111590565b60408051909190611c998382610dc4565b6001815291601f1901366020840137565b634e487b7160e01b600052603260045260246000fd5b8051156114e05760200190565b80518210156114e05760209160051b010190565b908160809103126102d7576040519060808201908282106001600160401b03831117610de5576060916040528051835260208101516020840152604081015160408401520151611d3081611a10565b606082015290565b60208152600954600091611d4b82610d74565b91826020830152600181169081600014611dbf5750600114611d6c57505090565b600960009081529250907f6e1540171b6c0c960b71a7020d9f60077f6af931a8bbf590da0223dacf75c7af5b818410611da85750500160400190565b805484840160400152602090930192600101611d98565b602094508493915060ff19166040830152151560051b01010190565b6040513d6000823e3d90fd5b634e487b7160e01b600052601160045260246000fd5b91908203918211611e0a57565b611de7565b60405163524f388960e01b81529060808280611e2d60048201611d38565b03817f00000000000000000000000000000000000000000000000000000000000000006001600160a01b03165afa91821561078457600092611ec3575b50611e7f611e7b6060840151151590565b1590565b611eb2576020820191611e93835142611dfd565b60105410611ea15751915190565b63c9cf1f8b60e01b60005260046000fd5b63f45e167b60e01b60005260046000fd5b611ee691925060803d608011611eed575b611ede8183610dc4565b810190611ce1565b9038611e6a565b503d611ed4565b60ff60075460a01c16611f0357565b63d93c066560e01b60005260046000fd5b600260085414611f25576002600855565b633ee5aeb560e01b60005260046000fd5b6000602091611fa5938115611fe2575b8015611fd4575b6000805160206133558339815191525460405163022f65e760e31b8152600481019390935260248301919091526001600160f81b031983166044830152909384926001600160a01b0390921691839182906064820190565b03925af190811561078457600091611fbb575090565b61032e915060203d60201161077d5761076f8183610dc4565b50611fdd612f83565b611f4d565b9050611fec612f83565b90611f46565b61032e3082612695565b1561200357565b636e41946d60e11b600052600060045260246000fd5b6001600160a01b038116801580159390929061205f9061203886611ffc565b60009061166161204a82600354613082565b90939061205681611ff2565b50600355612edd565b938493156120ca5761207384600354612414565b61207c81611ff2565b506003555b6120ba575b5061209082611ff2565b5060007f67500e8d0ed826d2194f514dd0d8124f35648ab6e3fb5e6ed867134cffe661e98180a490565b6120c49083612695565b38612086565b6120ea846106488460018060a01b03166000526000602052604060002090565b6120f381611ff2565b506120fe8382612695565b6001600160a01b038316600090815260208190526040902055612081565b6000805160206133558339815191525461216a92602092909161214990610550906001600160a01b031681565b90600060405180968195829463196d0b9b60e01b84523390600485016128e6565b03925af1908115610784576000916121ef575b50600080516020613315833981519152546121a290610550906001600160a01b031681565b803b156102d757604051630f8e573b60e21b815260048101839052336024820152906000908290604490829084905af18015610784576121e0575090565b806114bf600061032e93610dc4565b612208915060203d60201161077d5761076f8183610dc4565b3861217d565b1561221557565b631a9bbf8b60e11b600052600060045260246000fd5b61032e9291906122456001600160a01b038216151561220e565b6122596001600160a01b0383161515611ffc565b612730565b92949361227061227a9293848661222b565b9586848633612997565b916020612285612f83565b606460018060a01b0360008051602061335583398151915254169560006040519788948593637702dcff60e01b855260048501528b602485015260448401525af1928315610784576122eb936122e5916000916122ee575b508096612414565b91612730565b50565b612307915060203d60201161077d5761076f8183610dc4565b386122dd565b6007546001600160a01b0316330361232157565b63118cdaa760e01b6000523360045260246000fd5b9081600052600080516020613375833981519152602052604060002054156124035781600052600080516020613375833981519152602052604060002060405190816020825491828152019160005260206000209060005b8181106123ed5750505091816123ac611e7b936123b1950382610dc4565b612bd1565b6123dc577f1af0453083661051f6e56e5c070792320652e612154bf9af8637bb1e7655b99d600080a2565b63cf6c44e960e01b60005260046000fd5b825484526020909301926001928301920161238e565b63d66ca67560e01b60005260046000fd5b6000602091611fa5938115612491575b8015612483575b600080516020613355833981519152546040516303056db360e31b8152600481019390935260248301919091526001600160f81b031983166044830152909384926001600160a01b0390921691839182906064820190565b5061248c612f83565b61242b565b905061249b612f83565b90612424565b906001600160a01b0382168015801592600092916124e5916124c28661220e565b84918514612548576116616124d982600354613082565b93909361205681611ff2565b9384936124f485600354612414565b6124fd81611ff2565b50600355612538575b5061251083611ff2565b507f67500e8d0ed826d2194f514dd0d8124f35648ab6e3fb5e6ed867134cffe661e98280a490565b6125429084612695565b38612506565b61166161257d8261256b8a60018060a01b03166000526000602052604060002090565b546125788b821515612707565b613015565b93909361258981611ff2565b506125948a82612695565b6001600160a01b038a16600090815260208190526040902055612edd565b6001600160401b0381116125cc576001600160401b031690565b6306dfcc6560e41b600052604060045260245260446000fd5b61032e6032612edd565b61032e6019612edd565b6000602091611fa5938115612676575b8015612668575b60008051602061335583398151915254604051630afe14ad60e31b8152600481019390935260248301919091526001600160f81b031983166044830152909384926001600160a01b0390921691839182906064820190565b50612671612f83565b612610565b9050612680612f83565b90612609565b908160209103126102d7575190565b60008051602061331583398151915254600092916001600160a01b0390911690813b15610ba957604051635ca4b5b160e11b815260048101919091526001600160a01b0392909216602483015282908290604490829084905af18015610784576126fd575050565b816122eb91610dc4565b1561270f5750565b636b8830d760e11b60009081526001600160a01b0391909116600452602490fd5b9092916001600160a01b03821680159291612777908415612857578061275b61276d92600354613082565b92909261276781611ff2565b50600355565b6116616000612edd565b9485936001600160a01b038216938415918215612805576127a661279d88600354612414565b61276781611ff2565b156127f5575b50156127e5575b506127bd83611ff2565b507f67500e8d0ed826d2194f514dd0d8124f35648ab6e3fb5e6ed867134cffe661e9600080a4565b6127ef9084612695565b386127b3565b6127ff9086612695565b386127ac565b612825876106488660018060a01b03166000526000602052604060002090565b61282e81611ff2565b506128398582612695565b6001600160a01b0385166000908152602081905260409020556127a6565b612884816128778660018060a01b03166000526000602052604060002090565b5461257887821515612707565b91909161289081611ff2565b5061289b8682612695565b6001600160a01b03861660009081526020819052604090205561276d565b605411156128c357565b634e487b7160e01b600052602160045260246000fd5b9060548210156128c35752565b93926129139061291c93606093875260018060a01b031660208701526080604087015260808601906102dc565b930160056128d9565b565b6001600160a01b039182168152911660208201526040810191909152608060608201819052810183905260a09290918190848401376000828201840152601f01601f1916010190565b3d15612992573d9061297882610ebf565b916129866040519384610dc4565b82523d6000602084013e565b606090565b9195949293909290863b15612a445760209392916129ca9160405196879586956346083bfd60e01b87526004870161291e565b038160006001600160a01b0388165af160009181612a23575b50612a1f57826129f1612967565b8051919082612a1857636e41946d60e11b6000526001600160a01b03821660045260246000fd5b9050602001fd5b9150565b612a3d91925060203d60201161077d5761076f8183610dc4565b90386129e3565b5050505050905061032e613102565b908160209103126102d7575161032e81611a10565b600080516020613315833981519152546040516382027b6d60e01b815260048101929092526001600160a01b039283166024830152909160209183916044918391165afa90811561078457600091612abe575090565b61032e915060203d602011612ae0575b612ad88183610dc4565b810190612a53565b503d612ace565b90612af182610ebf565b612afe6040519182610dc4565b8281528092612b0f601f1991610ebf565b0190602036910137565b906020808351928381520192019060005b818110612b375750505090565b8251845260209384019390920191600101612b2a565b91612b63612b7192606085526060850190612b19565b9083820360208501526102dc565b906040818303910152815180825260208201916020808360051b8301019401926000915b838310612ba457505050505090565b9091929394602080612bc2600193601f1986820301875289516102dc565b97019301930191939290612b95565b80516000906000905b808210612c7057505091602091612bf3612c5a9461319f565b612bfc81612ae7565b906024858301377fed8d60e34876f751cc8b014c560745351147d9de11b9347c854e881b128ea60254600090612c3c90610550906001600160a01b031681565b9260405196879586948593632c027b1360e21b855260048501612b4d565b03925af190811561078457600091612abe575090565b90916009612c9d612c818587611ccd565b51601e1a612c8e816128b9565b612c97816128b9565b60ff1690565b1015612cb657612cae60019161319f565b920190612bda565b63ce54a8d160e01b60005260046000fd5b90602061032e928181520190612b19565b91612cf6906040929594958452606060208501526060840190612b19565b6001600160e01b0319909416910152565b6000198114611e0a5760010190565b600080516020613335833981519152546000805160206133158339815191525490929190612d4e90610550906001600160a01b031681565b803b156102d75760006040518092637d6e912360e11b8252818381612d768860048301612cc7565b03925af1801561078457612e3b575b507f5ea69329017273582817d320489fbd94f775580e90c092699ca6f3d12fdf7d0054612dbc90610550906001600160a01b031681565b90813b156102d757604051633263b83b60e01b8152916000908390818381612df06393869fd360e01b888c60048501612cd8565b03925af191821561078457612e0b92612e26575b50836131ad565b61291c61148b60008051602061333583398151915254612d07565b806114bf6000612e3593610dc4565b38612e04565b806114bf6000612e4a93610dc4565b38612d85565b6000602091611fa5938115612ecd575b8015612ebf575b6000805160206133558339815191525460405163f77f3f1d60e01b8152600481019390935260248301919091526001600160f81b031983166044830152909384926001600160a01b0390921691839182906064820190565b50612ec8612f83565b612e67565b9050612ed7612f83565b90612e60565b60008051602061335583398151915254604051639cd07acb60e01b81526004810192909252602090829060449082906000906001600160a01b0316612f266024840160056128d9565b5af190811561078457600091611fbb575090565b60008051602061335583398151915254604051639cd07acb60e01b81526064600482015290602090829060449082906000906001600160a01b0316612f266024840160056128d9565b60008051602061335583398151915254604051639cd07acb60e01b81526000600482018190529091602091839160449183916001600160a01b0316612f266024840160056128d9565b60008051602061335583398151915254604051639cd07acb60e01b81526032600482015290602090829060449082906000906001600160a01b0316612f266024840160056128d9565b919091602061302e6130278584613287565b9483612414565b91606460018060a01b0360008051602061335583398151915254169360006040519586948593637702dcff60e01b85528a6004860152602485015260448401525af190811561078457600091611fbb575090565b909190806130975750613093613102565b9190565b916130a29083611f36565b60206130ae8483613287565b93606460018060a01b0360008051602061335583398151915254169360006040519586948593637702dcff60e01b85528a6004860152602485015260448401525af190811561078457600091611fbb575090565b60008051602061335583398151915254604051639cd07acb60e01b81526001600482015290602090829060449082906000906001600160a01b0316612f2660248401836128d9565b906064602092600060018060a01b0360008051602061335583398151915254166040519687958694637702dcff60e01b86526004860152602485015260448401525af190811561078457600091611fbb575090565b9060208201809211611e0a57565b806000526000805160206133758339815191526020526040600020546132765760005260008051602061337583398151915260205260406000208151916001600160401b038311610de557680100000000000000008311610de557815483835580841061324d575b506020613229910191600052602060002090565b60005b8381106132395750505050565b60019060208451940193818401550161322c565b8260005283602060002091820191015b81811061326a5750613215565b6000815560010161325d565b633f06d22b60e01b60005260046000fd5b6000602091611fa5938115613304575b80156132f6575b60008051602061335583398151915254604051631391547f60e01b8152600481019390935260248301919091526001600160f81b031983166044830152909384926001600160a01b0390921691839182906064820190565b506132ff612f83565b61329e565b905061330e612f83565b9061329756feed8d60e34876f751cc8b014c560745351147d9de11b9347c854e881b128ea6005ea69329017273582817d320489fbd94f775580e90c092699ca6f3d12fdf7d01ed8d60e34876f751cc8b014c560745351147d9de11b9347c854e881b128ea6015ea69329017273582817d320489fbd94f775580e90c092699ca6f3d12fdf7d02a264697066735822122033ae79b80a2dfaac25986f3f6fb95205dfa55c0d4af249bd50a061c81e7c44b364736f6c634300081c0033",
  "linkReferences": {},
  "deployedLinkReferences": {}
}